:020000040800F2
:10000000F05600205D0200082D1E0008B5190008FA
:10001000DF1B0008B7050008C72600080000000025
:100020000000000000000000000000009D0100082A
:10003000C505000800000000F9010008B123000810
:1000400077020008770200087702000877020008AC
:10005000770200087702000877020008770200089C
:10006000770200087702000877020008770200088C
:10007000770200087702000877020008770200087C
:10008000770200087702000877020008770200086C
:10009000B905000877020008770200087702000817
:1000A000770200087702000877020008770200084C
:1000B0007124000877020008770200087702000820
:1000C000770200087702000877020008770200082C
:1000D000770200087702000877020008770200081C
:1000E000770200087702000877020008770200080C
:1000F00077020008770200087702000877020008FC
:1001000077020008770200087702000877020008EB
:1001100077020008770200087702000877020008DB
:1001200077020008770200087702000877020008CB
:1001300077020008770200087702000877020008BB
:1001400077020008770200087702000877020008AB
:10015000770200087702000877020008770200089B
:10016000770200087702000877020008770200088B
:1001700077020008770200087702000800000000FC
:100180007702000877020008DFF80CD000F0A4F92D
:1001900000480047B92A0008F05600202C4B196887
:1001A0000868B0E8F04F80F30988BFF36F8F4FF015
:1001B000000080F3118870470000000008480068C4
:1001C000006880F308884FF0000080F3148862B65E
:1001D00061B6BFF34F8FBFF36F8F00DF00BF00BF6B
:1001E00008ED00E0DFF80C00016841F470010160E7
:1001F000704700BF88ED00E0EFF30980BFF36F8F19
:10020000134B1A681EF0100F08BF20ED108A20E96A
:10021000F04F106009B44FF0500080F31188BFF325
:100220004F8FBFF36F8F03F08FFB4FF0000080F311
:10023000118809BC19680868B0E8F04F1EF0100F6B
:1002400008BFB0EC108A80F30988BFF36F8F704746
:1002500028000020EFF30580704700000648804723
:1002600006480047FEE7FEE7FEE7FEE7FEE7FEE79B
:10027000FEE7FEE7FEE7FEE76124000889010008CB
:100280002DE9F05F0546002092469B4688460646CB
:10029000814640241BE0284641464746224600F05E
:1002A00082F853465A46C01A914110D31146184657
:1002B000224600F069F82D1A67EB01084F462246E6
:1002C0000120002100F060F817EB00094E41201ECC
:1002D000A4F10104DFDC484631462A464346BDE826
:1002E000F09F40EA01039B0703D009E008C9121FF1
:1002F00008C0042AFAD203E011F8013B00F8013BE0
:10030000521EF9D27047D2B201E000F8012B491E0B
:10031000FBD270470022F6E710B513460A460446A2
:100320001946FFF7F0FF204610BD00F0004230F004
:1003300000400AD0C10D01F56071C0F3160042EA19
:100340000151C20840071143704700200146704721
:1003500001F0004330B421F0004150EA010206D020
:100360000A0DA2F56072C1F31301002A02DC30BC51
:1003700000207047440F44EAC104C100E01830BCBB
:1003800000EBC25000F01FB8202A04DB203A00FA2C
:1003900002F1002070479140C2F1200320FA03F3DC
:1003A000194390407047202A04DB203A21FA02F0DA
:1003B0000021704721FA02F3D040C2F1200291409F
:1003C0000843194670470029A8BF7047401C4900E0
:1003D00008BF20F00100704710B4B0FA80FC00FAAA
:1003E0000CF050EA010404BF10BC704749B1CCF1D5
:1003F000200421FA04F411FA0CF118BF0121214361
:100400000843A3EB0C01CB1D4FEA00614FEA10201B
:1004100042BF002010BC704700EBC35010440029BD
:10042000A4BF10BC7047401C490008BF20F0010069
:1004300010BC70472DE9F04D00231A461B1A8A4163
:1004400003DB00200146BDE8F08DC1F30A52C1F381
:10045000130141F480154FF0000BD10702D10018B1
:100460006D41521E0027044640F2FF11384601EB51
:10047000620A3E468046024600204FF48011FFF794
:1004800092FFC2197141BB1846EB0100B4EB030C9B
:1004900075EB000C04D3E41A65EB000517460E4615
:1004A000241908F101006D4180463428E3DDF91973
:1004B00046EB0600091BA84103D24FF0FF3213465A
:1004C00001E0002213461BEB070046EB0A51BDE892
:1004D000F04D00F013B80000064C074D06E0E06850
:1004E00040F0010394E8070098471034AC42F6D37B
:1004F000FFF74EFE104600083046000810B5141EE7
:1005000073F1000408DA401C41F1000192185B41CC
:100510001A4301D120F0010010BD2DE9F04D9246A3
:100520009B4611B1B1FA81F202E0B0FA80F22032BA
:100530009046FFF729FF04460F4640EA0A0041EAC9
:100540000B0153465A46084313D0114653EA0100A3
:1005500019D0C8F140025046FFF725FF05460E4668
:10056000504659464246FFF70FFF084305D0012089
:1005700004E020463946BDE8F08D0020054346EAF8
:10058000E0762C4337430A986305E40AA0EB0800A1
:100590000022FD0A44EA47540A3002D500200146F1
:1005A000E9E7010510196941DDE9084500196941CC
:1005B000BDE8F04DA2E7FEE7014800F078B9000081
:1005C000B0000020704772B6FEE790F82020012AA4
:1005D00007D0022A05D0416A41F4802141620120FE
:1005E0007047006842690A43426100207047F0B5D5
:1005F00090F820500468A468012D05D0022D03D086
:10060000416A41F4802153E014F0406F01D1E500CC
:100610004BD5C4F30164022C03D9416A41F40001B3
:1006200046E00125A5401D608B684FF4C0759BB165
:10063000CE6833434E6843EAC603066805EB0417E9
:10064000F3514FF4C273076803EB04130E69FE50B5
:10065000097D012905D009E00E88CB6843EA46539D
:10066000EBE70168CE5846F48076CE501179D2F887
:1006700005304FF4C67641EA0323016806EB041601
:100680008B511178D2F801204FF4C47341EA022152
:10069000026803EB0413D150006805EB04114258C3
:1006A00042F0010242500020F0BD416A41F40011C5
:1006B00041620120F0BD000010B590F82020012A11
:1006C00007D0022A05D0416A41F48021416201200D
:1006D00010BD3B48D0F8002242F00102C0F80022D1
:1006E000D0F8002222F47C52C0F80022D0F8002278
:1006F0004B6A42EA0322C0F800220A7D02F01F037F
:1007000001229A40D0F81C329343C0F81C32CB69C6
:10071000B3B9D0F80C329343C0F80C328C894B68D3
:1007200064F31F434C6900EBC404C4F840320C89E5
:100730000B6864F31F434C6900EBC404C4F84432F3
:10074000CB69012B16D1D0F80C321343C0F80C3210
:100750000C884B6864F31F434C6900EBC404C4F875
:1007600040320C89CB6864F31F434C6900EBC4042E
:10077000C4F844328B69002BD0F804320ED01343F6
:10078000C0F804320B69002BD0F8143208D01343A0
:10079000C0F81432096A012904D008E09343EFE756
:1007A0009343F5E7D0F81C121143C0F81C12D0F89F
:1007B000001221F00101C0F80012002010BD00005D
:1007C00000640040704730B590F82040012C05D0FF
:1007D000022C03D0416A41F480215DE004680029C5
:1007E00055D02469A40754D04FF4D874056804EB9D
:1007F00001142D5915F00405956005682D594ED04A
:10080000ED08556005682C5904F00204D4604FF4DB
:10081000DA74056804EB01142D5905F00F05156114
:1008200005682D59C5F30725956105682C59240CD9
:1008300054614FF4DC72046802EB0112A4581C707E
:100840000468A458240A5C700468A458240C9C70A2
:100850000468A258120EDA704FF4DE72046802EBDC
:100860000112A4581C710468A458240A5C7104681D
:10087000A458240C9C710468A258120EDA71006806
:1008800081B1016941F020010161002030BDE468BF
:10089000A8E7416A41F400114162012030BD6D0DAD
:1008A0001560AFE7C16841F02001C160EDE72DE9B7
:1008B000F05F0546006800244669D0F80490876818
:1008C000D0F80CB0D0F810A0D0F81880F10748D0BC
:1008D000F90714D001218160B80703D5284600F03C
:1008E000FEF90CE0780702D54FF4006407E0380702
:1008F00002D54FF4805402E0284600F0EFF9F805E5
:1009000016D529684FF480708860B80503D528464D
:1009100000F0E7F90CE0780502D544F4005407E054
:10092000380502D544F4804402E0284600F0D8F9A6
:10093000F80316D529684FF480308860B80303D5D2
:10094000284600F0D0F90CE0780302D544F40044C6
:1009500007E0380302D544F4803402E0284600F072
:10096000C1F9300707D55FEACB6004D529681020AC
:1009700044F40074C86070074FF0080707D55FEAB9
:100980000B7004D52868C760284600F059F9B007F5
:1009900006D52868C068800702D0284600F052F9C2
:1009A000700607D55FEACA6004D52968102044F4B0
:1009B00080640861B00607D55FEA0A7004D528682C
:1009C0000761284600F05CF9F00606D52868006942
:1009D000800702D0284600F054F9B00308D55FEA3A
:1009E000C96005D5296810204860284600F04AF9FA
:1009F000F00307D55FEA097004D5286847602846E8
:100A000000F072F9300446D55FEA497040D5F00530
:100A100004D55FEAC87001D044F00104B00504D5E4
:100A20005FEA887001D544F00204700504D55FEADE
:100A3000487001D544F00404300529D518F0700F32
:100A400026D008F07000402815D006DC102809D008
:100A500020280AD0302816D10AE050280ED060286D
:100A600011D10EE044F008040DE044F010040AE057
:100A700044F0200407E044F0400404E044F0800423
:100A800001E044F480742868816921F0700181617B
:100A9000296804204860002C05D0686A20436862F9
:100AA0002846FFF78FFEBDE8F09F70B5040003D025
:100AB00094F8200010B104E0012070BD204600F041
:100AC00081F82068016841F00101016000F000FA3E
:100AD0000546052604E000F0FBF9401B0A2811D862
:100AE00020684068C007F6D02068016821F0020144
:100AF000016000F0EDF905460BE000F0E9F9401B5C
:100B00000A2806D9606A40F40030606284F82060E8
:100B1000D2E7206840688007EFD4207E0128206853
:100B200001683DD021F080010160607E01282068CD
:100B3000016838D021F040010160A07E01282068C2
:100B4000016833D021F020010160E07E0128206897
:100B500001682ED041F010010160207F012820683B
:100B6000016829D021F008010160607F0128206818
:100B7000016824D021F004010160D4E90201084396
:100B8000D4E90412114308436168491E08432168EF
:100B9000C86100206062012084F82000002070BD40
:100BA00041F08001C0E741F04001C5E741F020017C
:100BB000CAE721F01001CFE741F00801D4E741F086
:100BC0000401D9E710B586B0044614216846FFF742
:100BD000A1FB18492068884229D1174800210268E2
:100BE00042F000720260006800F000700590124848
:100BF0001038026842F001020260006800F0010053
:100C000005904FF4C05000900220CDE9010103206F
:100C10000390092004906946084800F067F8002214
:100C20000521142000F0F2F9142000F0E1F906B0DB
:100C300010BD000000640040403802400000024047
:100C40007047000030B587B00B4B6A460021FFF7B4
:100C5000BAFD0949684601F0F1FE084D002404EB95
:100C6000C40005EB001001F07FFA641CA4B2082C4C
:100C7000F5D307B030BD00001C0000209801002013
:100C800070477047704770B5044690F820000128FF
:100C900004D0606A40F40020606217E0022084F80B
:100CA00020002068016821F00101016000F010F9C6
:100CB00005460DE000F00CF9401B0A2808D9606ACF
:100CC00040F400306062052084F82000012070BDEF
:100CD00020684068C007EDD1606270BD7047704702
:100CE0007047704770477047704700002DE9F84F14
:100CF000DFF89C910022A9F1040B03274FF00F0CA1
:100D000009F1040AABF1040E01250B6895402B4054
:100D1000AB426ED10C7904F00304012C01D0022CFB
:100D200015D18668540007FA04F826EA0806D1F8B7
:100D30000C8008FA04F848EA0608C0F808804468FD
:100D4000AC430D79C5F300159540254345600C79FA
:100D5000E443A40708D0C568540007FA04F6B54375
:100D60008E68A6402E43C6600C7904F00304022C62
:100D700011D1D40800EB8406356A5407E40E0CFA4E
:100D800004F825EA0805D1F8108008FA04F848EAC2
:100D90000508C6F820800568540007FA04F6B54334
:100DA0000E7906F00306A6402E4306604C6814F444
:100DB000403F66D0374C256845F48045256024685F
:100DC00022F0030504F480440094334C05EB04083E
:100DD000D8F808589407260F0CFA06F4A5432F4CB0
:100DE000A04201D1002424E02D4CA04202D10124D4
:100DF0001FE046E02B4CA04201D1022419E02A4C0E
:100E0000A04201D1032414E0284CA04201D10424C3
:100E10000FE0274CA04201D105240AE0254CA04256
:100E200001D1062405E0244CA04201D1072400E0B2
:100E30000824B4402C43C8F80848D9F800404D466F
:100E40004E689C43F60200D51C432C60DAF8004043
:100E500055464E689C43B60200D51C432C60DBF817
:100E600000405D464E689C43B60300D51C432C6091
:100E7000DEF8004075464E689C43F60300D51C43DF
:100E80002C60521C102AFFF43FAFBDE8F88F000021
:100E9000083C01404438024000300140000002405C
:100EA0000004024000080240000C02400010024012
:100EB0000014024000180240001C02400069084073
:100EC00000D0012070470AB1816170470904FBE737
:100ED00001488068704700000C00002002488168CB
:100EE00002781144816070470C0000200B4810B557
:100EF000016841F400710160016841F480610160A2
:100F0000016841F480710160032000F09FF80F2018
:100F100000F006F800F050F8002010BD003C024040
:100F200030B50546204887B00024016841F0010132
:100F30000160006806A900F001000590684600F015
:100F400031F90398B0B100F04DF9400017494FF066
:100F50008042B0FBF1F11648491E026040F2E732D0
:100F6000C0E90324C0E90114846100F039FB0400E6
:100F700003D015E000F036F9E8E70D4800F05EFB1D
:100F800004000DD11C2000F033F8102D07D20022F0
:100F900029461C2000F03AF80648056000E00124CC
:100FA00007B0204630BD00004038024040420F00EC
:100FB0001C010020100000200C4882B0016841F4A0
:100FC00080410160006800F4804000900748001FE5
:100FD000016841F0805101600068002200F08050FB
:100FE00000900F21901E02B000F010B8443802406B
:100FF000002809DB00F01F02012191404009800018
:1010000000F1E020C0F8001170470000F0B40E4B72
:101010001B68C3F30223C3F10704042C00D9042482
:101020001D1D072D01D2002300E0DB1E012606FA5C
:1010300004F56D1E0D409D409E40761E164045EA0B
:101040000601F0BC01F07ABC0CED00E0064A00F0AD
:10105000070110684FF6FF03184040EA01200349DA
:1010600008431060704700000CED00E00000FA0536
:101070002DE9F0470D46040065D0DFF81491D9F84A
:101080000000EFB200F00700A84207D289F8007014
:10109000D9F8000000F00700A84254D120683D4E66
:1010A000810712D5400703D5306840F4E050306026
:1010B0002078000703D5306840F460403060306825
:1010C000A16820F0F000084330602078C0072DD0E0
:1010D000304960680839012812D0022813D003284B
:1010E00011D00968890700292DDA316821F0030140
:1010F00001433160FFF7ECFE804641F2883A0EE092
:1011000009688903EFE709688901ECE7FFF7E0FE6A
:10111000A0EB0801514502D90320BDE8F0873068F3
:10112000616800F00C00B0EB810FEFD1D9F800102E
:10113000484601F00701A94207D90770006800F08E
:101140000700A84201D00120E7E72078400705D535
:101150003068E16820F4E0500843306020780007F0
:1011600006D53068216920F4604040EAC100306053
:1011700000F058F83168084AC1F30311515CC840C7
:101180000649086006480068FFF7CAFE0020C4E769
:10119000003C024008380240D445000818000020F6
:1011A000100000200F2202600C4A136803F00303B2
:1011B0004360136803F0F0038360136803F4E053A3
:1011C000C36012684FF4E05303EAD202026104489C
:1011D000006800F00700086070470000083802400F
:1011E000003C02400448054900680968044AC1F30C
:1011F0008221515CC8407047180000200838024026
:10120000E44500080448054900680968044AC1F338
:101210004231515CC8407047180000200838024035
:10122000E4450008154810B5006810F00C0114489A
:1012300013D0431004290FD008290ED10F4C241FBE
:10124000216801F03F022168490207D52068C0F3F8
:101250008810A0FB030106E0184610BD2168C1F309
:101260008811A1FB00010023FFF70AF82168C1F3F0
:101270000141491C4900B0FBF1F010BD08380240A3
:101280000024F4002DE9F84F040075D02078DFF831
:1012900038A3C007AAF1040548D00AF10400016888
:1012A000C1F38101012908D00068C0F38100022840
:1012B0000AD1DAF80000400206D52868800335D547
:1012C00060680028E1D031E06068B0F5803F10D060
:1012D000B0F5A02F286810D020F48030286028684E
:1012E00020F4802028606068A0B1FFF7F1FD064679
:1012F0000CE0286840F48030F4E740F48020286057
:10130000F7E7FFF7E5FD801B642871D828688003A4
:10131000F7D50BE0FFF7DCFD064604E0FFF7D8FD4C
:10132000801B6428F1D828688003F7D42078DFF880
:101330009C9280074FF0000B3DD5A348001D01682B
:1013400011F00C0F08D00068C0F3810002280AD108
:10135000DAF80000400206D42868800715D5E06856
:10136000012809D111E0E068B8B10120C9F80000F6
:10137000FFF7AEFD064605E022E1FFF7A9FD801B61
:101380000228C2D828688007F7D52868216920F08C
:10139000F80040EAC10028600DE0C9F800B0FFF78E
:1013A00097FD064604E0FFF793FD801B02281FD837
:1013B00028688007F7D42078000722D5824F844818
:1013C0006169703771B101210160FFF781FD064647
:1013D00004E0FFF77DFD801B022809D838688007EC
:1013E000F7D50EE0C0F800B0FFF772FD064605E045
:1013F00082E0FFF76DFD801B02287DD838688007EA
:10140000F7D42078400765D56F484FF000083C308E
:101410000068C0000BD46C483C30016841F080513A
:10142000016000684FF0010800F080500090694FA3
:101430003868C0050FD4386840F480703860FFF712
:1014400047FD064604E0FFF743FD801B022853D802
:101450003868C005F7D55C4FA0686C3701280FD0FD
:101460000528386810D020F001003860386820F076
:1014700004003860A068B0B1FFF72AFD06460EE010
:10148000386840F00100F4E740F004003860F7E706
:10149000FFF71EFD811B41F28830814263D8386816
:1014A0008007F5D50DE0FFF713FD064606E0FFF7D0
:1014B0000FFD811B41F28830814254D83868800783
:1014C000F5D4B8F1000F05D03F483C30016821F059
:1014D00080510160A069B8B33B49091D0968C1F397
:1014E0008101022946D00228584606D0C9F860007A
:1014F000FFF7EEFC044639E035E04F46C9F86000DE
:10150000FFF7E6FC064604E0FFF7E2FC801B02283A
:1015100029D828688001F7D4D4E907010843A16AD3
:101520002D4A490802EB0141626A41EA82110843EF
:1015300094F82C1040EA0161CAF8001001203866C6
:10154000FFF7C6FC044605E03CE0FFF7C1FC001BCA
:10155000022808D828688001F7D533E0FFF7B8FCE7
:10156000001B022802D90320BDE8F88F28688001FB
:10157000F4D427E00128F7D0DAF80000E26900F49B
:10158000800191421CD1226A00F03F01914217D1A3
:1015900047F6C071626A0140B1EB821F10D1A26AA6
:1015A0004FF0FF3300F4403103EB5202B1EB024F36
:1015B00006D194F82C1000F07060B0EB016F01D0F0
:1015C0000120D1E70020CFE7043802400000474265
:1015D000800E4742007000400000FFFF70477047D8
:1015E00010B5040003D094F83D0010B107E00120CD
:1015F00010BD002084F83C00204600F01EF80220B8
:1016000084F83D00211D206800F038FF012084F897
:10161000460084F83E0084F83F0084F8400084F8D7
:10162000410084F8420084F8430084F8440084F8C0
:10163000450084F83D00002010BD704790F83D1033
:10164000012901D001207047022180F83D10016876
:10165000CA6842F00102CA6000681149884214D089
:10166000B0F1804F11D00F4988420ED00E49884208
:101670000BD00E49884208D00D49884205D00D494B
:10168000884202D00C49884204D1816801F00701E8
:10169000062903D0016841F0010101600020704774
:1016A000000001400004004000080040000C004021
:1016B000000401400040014000180040704770B530
:1016C0000446006801694FF00005C943890715D435
:1016D000C168C943890711D4E91E0161012020773F
:1016E000206880698007204602D0FFF7E7FF04E00A
:1016F00000F098F8204600F096F8257720680169F8
:10170000C943490717D4C168C943490713D46FF0C7
:1017100004010161022020772068806910F4407F75
:10172000204602D0FFF7CAFF04E000F07BF8204615
:1017300000F079F8257720680169C943090716D4B4
:10174000C168C943090712D46FF008010161042080
:1017500020772068C0698007204602D0FFF7AEFFDF
:1017600004E000F05FF8204600F05DF8257720687F
:101770000169C943C90617D4C168C943C90613D44E
:101780006FF010010161082020772068C06910F413
:10179000407F204602D0FFF791FF04E000F042F8BE
:1017A000204600F040F8257720680169C943C90741
:1017B00008D1C168C943C90704D1891E0161204607
:1017C00000F032F820680169C943090609D4C168EC
:1017D000C943090605D46FF0800101612046FFF777
:1017E000FDFE20680169C943490609D4C168C9439F
:1017F000490605D46FF040010161204600F01BF856
:1018000020680169C94389060BD4C168C9438906A8
:1018100007D46FF0200101612046BDE87040FFF75A
:10182000DEBE70BD704770470068B0F1804F01D1D7
:10183000FFF754BB7047704770B5040004D094F8AC
:101840003D00002510B106E0012070BD84F83C5039
:10185000204600F023F8242084F83D002068C16869
:1018600021F40051C160204600F06CFE206801693F
:1018700021F4904101612068416921F02A01416110
:101880002068C16841F40051C1602564202084F8BB
:101890003D0084F83E00002070BD000010B586B009
:1018A000044614216846FEF735FD13492068884236
:1018B00020D11248016841F400310160006800F451
:1018C000003005900D481038016841F001010160B9
:1018D0000068694600F0010005900C20009002208D
:1018E00001900120029003200390072004900448F7
:1018F000FFF7FCF906B010BD00440040403802403C
:10190000000002402DE9F843044690F83D001F46D0
:1019100015460E4620284BD1C6B1BDB194F83C0007
:10192000012845D0012084F83C004FF00008C4F89D
:101930004080212084F83D00FFF7CAFAA584814643
:10194000E584A068B0F5805F03D004E00120BDE825
:10195000F883206920B13546002684F83C800EE0EB
:101960000025FAE78021204600F072FEA0B9ADB153
:1019700015F8010B21684860E08C401EE084E08C83
:101980004B464FF0000200970028EBD14FF040018A
:10199000204600F05DFE30B10320D8E736F8020B98
:1019A000C0F30800E6E7202084F83D000020CEE7E1
:1019B0000220CCE7FEE700000022C26490ED100A8E
:1019C000104B80ED040AB0F9081000EE101AB8EEC2
:1019D000C00AB0EEC00A10EE101A994210DC016D78
:1019E000491C016532290ADB02659FED070A0121C6
:1019F00080ED210AC1640221016080ED040A704774
:101A0000026570470000F041000000000EB5154867
:101A1000002102AB8160C160082101618901016080
:101A200011498889020A8DF800208DF80100B1F86B
:101A30009C00020A8DF802208DF80300B1F82C01F9
:101A4000020A8DF804208DF80500B1F8BC016A4641
:101A5000010A8DF806108DF8070002490348FEF7C9
:101A6000C6FD0EBD6401002098010020B0000020DA
:101A70000F4810B50D4901600321416000214FF46A
:101A800000228160C0E903124FF4401242610176E6
:101A900041768176C17601774177FFF706F8002815
:101AA00003D0BDE81040FEF78EBD10BD00640040BD
:101AB000B000002010B50A4A00210A4801F05EF883
:101AC000094C074A002120602432084801F056F8EA
:101AD00060600348483001F00DF8A06010BD0000C0
:101AE0007C450008912200080000002029230008FE
:101AF00070B586B014216846FEF70CFC1E48002520
:101B0000016841F080010160016801F080010591E8
:101B1000016841F001010160016801F001010591D6
:101B2000016841F010010160016801F010010591A8
:101B3000016841F0080101600068012200F008001E
:101B40000E4E5402059021463046FFF7BCF90220A4
:101B5000CDE9025000940124694601943046FFF714
:101B6000C5F84FF4C060CDE9000569460294044809
:101B7000FFF7BCF806B070BD3038024000100240DC
:101B8000000C02400C4810B50A4901604FF4E131E5
:101B90004160002181600C22C160C0E904128161B2
:101BA000C161FFF749FE002803D0BDE81040FEF7F1
:101BB0000ABD10BD00440040D8000020B4EEE00A89
:101BC000F1EE10FA01DDB0EE600AF1EE600AB4EE5B
:101BD000E00AF1EE10FA01D2B0EE600A7047FEE7BB
:101BE0002DE9F05FDFF810A20025DFF810B2AAF5AA
:101BF00000762F46A6F5906905EBC50109EB0114A7
:101C0000207903287DD020680A282CD2DFE800F054
:101C100062BA050EBA122C82BA64B4F9080000EE5A
:101C2000100AF8EEC00A94ED040A18E0204600F00D
:101C300081FDF2E7B4F90E00D4ED210A00EE100A9E
:101C40000AEB85108046B8EEC00A00F07BF9B4F9C3
:101C5000080000EE100AF8EEC00A98ED0E0A06EB36
:101C6000851000F0F5F88DE0B4F9080000EE100AD8
:101C700006EB85108046F8EEC00A94ED160A00F0D7
:101C8000E7F8B4F9600000EE100AF8EEC00A98ED2B
:101C90000E0AFFF793FF88ED0E0AB4F9080000EE74
:101CA000100AB8EEC00AB0EEC00A10EE100A58458D
:101CB0000EDCA06E401CA0660A2863DB0120C4E98C
:101CC000190702209FED4E0A206084ED040A59E0B6
:101CD000A76657E0A78155E02046FFF76DFEB4F9EF
:101CE000080000EE100A06EB85108046F8EEC00AE8
:101CF00094ED040A00F0ACF8B4F9480000EE100AC4
:101D000000E043E0F8EEC00A98ED0E0AFFF756FF38
:101D100088ED0E0A0AEB8510D4ED210A94ED1C0A19
:101D2000804600F00FF9B4F9080000EE100A06EB47
:101D30008510F8EEC00A98ED0E0A804600F088F88B
:101D4000B4F9780000EE100AF8EEC00A98ED0E0A19
:101D5000FFF734FF88ED0E0AB4F9080000EE100A10
:101D6000B8EEC00AB0EEC00A10EE100A584523DCE7
:101D7000D4F88000401CC4F88000322802DB012027
:101D8000C4E91F076D1C082DFFF636AF00204B4637
:101D900000EBC00103EB01110A68042A05D00A799F
:101DA000012A0CD0022A17D08F81401C0828EFDBB3
:101DB000BDE8F05FFFF72ABEC4F88070E2E706EBEB
:101DC0008012DFED100A92ED0E0A20EE200ADFED00
:101DD0000E0A80EE201A09E006EB80129FED0B0A36
:101DE000D2ED0E0A60EE800A80EE801ABDEEC10AC6
:101DF00010EE102A8A81D8E7180800200000204140
:101E0000000000000000804600409C4600401C4648
:101E1000054802210171012180F8941080F82411F5
:101E200080F8B4117047000098010020FEE7B4EE7E
:101E3000E00AF1EE10FA01DDB0EE600AF1EE600AA0
:101E4000B4EEE00AF1EE10FA01D2B0EE600A70478B
:101E500030EE600A00B580ED000AD0ED010A70EEA8
:101E6000600AC0ED050AD0ED080A20EE800AD0ED28
:101E70000B0AFFF7DCFFD0ED070A90ED051AB0EE74
:101E8000002A00EE810AD0ED000A90ED021A70EEF1
:101E9000811A90ED011A41EE421A90ED092A02EEE4
:101EA000210AD0ED0E1A70EE211AC0ED0E1A90ED37
:101EB0000C0AF4EEC01AF1EE10FA01DD80ED0E0A04
:101EC000D0ED0E1AB1EE400AF4EEC01AF1EE10FA9F
:101ED00001D280ED0E0AF5EEC00A80ED021AF1EE95
:101EE00010FAC0ED010A01DCF1EE600A90ED060A7D
:101EF000F4EEC00AF1EE10FA03D29FED020A80ED73
:101F00000E0A00BD0000000080ED062AC0ED0C1A8C
:101F100000F11C0181EC030AB1EE610A80ED0D0AAB
:101F200080ED0B3A9FED060AC0ED0A2A80ED020A09
:101F300080ED010A80ED000A80ED0E0A7047000076
:101F40000000000000B590F83C1030EE600A012956
:101F500006D180ED010A80ED020A002180F83C10D4
:101F600080ED000AD0ED040A30EE801A80ED041AEC
:101F7000D0ED010A30EE600A80ED050AD0ED080AC6
:101F800020EE810AFFF753FF90ED071AD0ED000A0B
:101F9000D0ED051A01EE200A90ED091A01EE210A92
:101FA00080ED0E0A90ED0C1AB4EEC10AF1EE10FAB3
:101FB00002DCB0EE401A01E080ED0E1A90ED0D0A41
:101FC000B4EEC01AF1EE10FA01D280ED0E0AF5EE71
:101FD000C00AC0ED010AF1EE10FA01DCF1EE600A70
:101FE00090ED060AF4EEC00AF1EE10FA03D29FED6E
:101FF000020A80ED0E0A00BD0000000010B52DEDB4
:10200000068B9FED509AB0EE493A9FED4F8AB2EEA3
:10201000042AF0EE482ADFED4D8AF0EE681ADFED73
:102020004C9AF1EE000AB2EE080AB0EE691A49487D
:10203000FFF76AFF4748B0EE493AF0EE482AB2EEA1
:10204000042AF0EE681AB0EE691AF1EE000AB2EE58
:10205000080A4030FFF758FF3E48B0EE493AF0EE2C
:10206000482AB2EE042AF0EE681AB0EE691AF1EED0
:10207000000AB2EE080A8030FFF746FF3548B0EE9E
:10208000493AF0EE482AB2EE042AF0EE681AB0EEB1
:10209000691AF1EE000AB2EE080AC030FFF734FF09
:1020A000DFED2D8ADFED2D9A9FED2DAAB0EE493A96
:1020B000F0EE682AB0EE692AF0EE681AB0EE081A5F
:1020C000F0EE480AB0EE4A0A2648FFF71DFF254801
:1020D000B0EE493AF0EE682AB0EE692AF0EE681ADE
:1020E000B0EE081AF0EE480AB0EE4A0A4030FFF7A8
:1020F0000BFF1C48B0EE493AF0EE682AB0EE692AB0
:10210000F0EE681AB0EE081AF0EE480AB0EE4A0A8D
:102110008030FFF7F9FEB0EE493AF0EE682AB0EEF3
:10212000692AF0EE681AF0EE480AB0EE4A0ABDECF1
:10213000068BB0EE081A0B48BDE81040C030FFF720
:10214000E3BE00000000FA430000000000409C4590
:10215000CDCCCC3D1806002000C0DA45CDCC4C3D9E
:10216000333323411808002070B59FED350A90F8ED
:102170008820C1882AB10279012A08D0022A0BD10D
:1021800008E0A0F88A10012180F8881070BDB3EE35
:10219000030A01E09FED2B0AB0F90820DFED2A0ABF
:1021A000002A9FED2A1A2A4BB0F88A2041F6FF74C4
:1021B0001CDB9142A1EB020204D2224440F2E24431
:1021C000A2420BDA01EE902AF8EEE11A81EEA02A83
:1021D00062EE010A80EE801A83ED001A93ED000A88
:1021E000B5EEC00AF1EE10FA1EDC23E0914224D9CC
:1021F000641A04F2E145154440F6C216B5420CD803
:10220000224401EE902AF8EEE11A81EEA02A62EE55
:10221000010A80EE801A83ED001A93ED000AB5EEF4
:10222000C00AF1EE10FA05D2D0ED210A30EE800A94
:1022300080ED210AA0F88A1070BD8A1AE1E700003B
:10224000000000000000104200F8FF450000B44309
:102250002400002010B50749074800F00FF8064891
:1022600040F6B831903000F009F8BDE81040FFF7B3
:10227000B7BC000048F4FFFF2802002000EE101A4F
:1022800002220260B8EEC00A80ED040A7047000026
:102290002DED028B82B000F017FAFFF7AFFEFFF7CB
:1022A000B7FD1D4E9FED1B8A002486ED018A86ED49
:1022B000028A1A4FDFF8689086ED008A25464FF4AF
:1022C0000078012300951A460321B86801F0D8FB75
:1022D000C043800701D16CB1002486ED018A86EDF0
:1022E000028A4CB10F48B7EE000A86ED000A0122BF
:1022F000456604E00124F0E786ED008A00224146AD
:102300004846FEF7E0FDFFF7A5FF012000F0E5FBE2
:10231000D7E70000000000007C0100200000002042
:102320000010024098010020194E1A4D4FF400771A
:10233000341539463046FEF7C1FD78B9142000F057
:10234000CCFB15A000F0F2FA39463046FEF7B6FD98
:102350000028F9D00121A86801F04CFB2146304645
:10236000FEF7ACFD78B9142000F0B7FB0DA000F02B
:10237000DDFA21463046FEF7A1FD0028F9D0022102
:10238000A86801F037FB142000F0A7FBD1E700009C
:10239000000C024000000020B0B4BCFC31B0B4CF4F
:1023A000C20D0A00B0B4BCFC32B0B4CFC20D0A00FA
:1023B00010B54FF0E020006901F030FF012803D094
:1023C000BDE8104001F05ABC10BD000030B593B01C
:1023D00030216846FDF79EFF14210CA8FDF79AFFF7
:1023E0001D480025016841F080510160006800F03F
:1023F000805011901948016841F4804101600068E3
:10240000022400F48040119001200090000401900B
:102410008001CDE9064008AA0420A82182E8130023
:102420000B906846FEF72EFF08B172B6FEE70CA9C6
:102430000F2081E831004FF4A0500F904FF48050EE
:10244000109005210CA8FEF713FE002801D072B6EB
:10245000FEE713B030BD000040380240007000407D
:102460000248016841F470010160704788ED00E0A6
:102470000148FFF724B900001C010020F0B50268F4
:10248000254D264E264FDFF89CC0274B4FF0804E3F
:10249000A84209D0704507D0B04205D0B84203D059
:1024A000604501D0984203D122F070044A6822436B
:1024B000A8421BD0704519D0B04217D0B84215D0F1
:1024C000604513D0984211D0184CA0420ED0184C41
:1024D000A0420BD0174CA04208D0174CA04205D008
:1024E000164CA04202D0164CA04203D122F44074F4
:1024F000CA6822434C6922F08002224302608A6843
:10250000C2620A688262A84201D0984201D1096978
:10251000016301214161F0BD000001400004004061
:1025200000080040000C0040000401400040014051
:10253000004401400048014000180040001C0040D9
:102540000020004070B5044600680169E26821F48B
:10255000405111430161A1682069E269014360694A
:10256000104301432068C26849F20C639A430A434E
:10257000C26020684169A26921F440711143416140
:1025800031492068884202D03049884202D1FEF7A2
:1025900039FE01E0FEF726FEE269002319216425D9
:1025A0003226B2F5004F626828D0A0FB0101930FDC
:1025B0009200FDF765FE0146B0FBF5F06FF01802E2
:1025C000504301EB800006EB0010B0FBF5F000F08B
:1025D000F002B1FBF5F002EB0012B1FBF5F06FF089
:1025E0001803584301EB800006EB0010B0FBF5F038
:1025F00000F00F0021681044886070BDA0FB01014D
:1026000092185B41FDF73CFE0146B0FBF5F002017C
:10261000B1FBF5F06FF01803584301EB800006EBB7
:10262000C000B0FBF5F000F0F80002EB4002B1FB97
:10263000F5F0584301EB800006EBC000B0FBF5F06D
:1026400000F00700D6E70000001001400014014030
:102650002DE9F0411E46174688460446069D26E0B1
:10266000681C24D025B1FEF733FC801BA8421ED97C
:1026700020680C3050E8001F21F4D07140E80012AF
:10268000002AF5D12068143050E8001F21F0010124
:1026900040E80012002AF5D1202084F83D0084F89B
:1026A0003E00002084F83C000320BDE8F081206853
:1026B000016838EA010004D00020B842D0D00020E0
:1026C000F3E70120F9E7FEE710B58AB00024012006
:1026D000CDE9064008900094019402940394059477
:1026E000694612480494FDF7E7FF08B1FDF76BFF58
:1026F0000E48FEF7C8FA08B1FDF765FF01210B4847
:10270000FDF763FF08B1FDF75EFF02210748FDF703
:102710005CFF08B1FDF757FF05480421C0E90141FE
:102720000821C0E9034104750AB010BDB0000020C3
:102730006401002010B504462DED028B4FF07E5150
:10274000D0ED0C2A12EE900A9FED768A884218DCB2
:10275000F5EEC02AF1EE10FA13D394ED0D3A13EE14
:10276000100A88420DDCB5EEC03AF1EE10FA08D33B
:1027700094ED0A2A94ED091AB4EEC12AF1EE10FA8A
:1027800004D284ED048ABDEC028B10BD94ED070ADF
:10279000D4ED080AB4EE600AF1EE10FA04D121EE8D
:1027A000020A84ED040AEEE770EEC01AF5EEC01AD4
:1027B000F1EE10FA01DC70EE601AB0EE004AF4EEB1
:1027C000C00A62EEA12A23EE213A71EEE23A62EEED
:1027D000845A73EEC34A62EE023A23EE043A41EEA3
:1027E000413A83EEA55AD4ED0B3A63EEA33AB0EE2C
:1027F000636A02EE426AC6EE035AF1EE10FA06DD93
:1028000094ED213AB4EEC03AF1EE10FA23D3F4EE8F
:10281000C00AF1EE10FA06D294ED213AB4EEC03AB5
:10282000F1EE10FA17DCF4EEC00AF1EE10FA06DD54
:1028300094ED213AB4EEE03AF1EE10FA0BDCF4EE4E
:10284000C00AF1EE10FA09D294ED213AB4EEE03A62
:10285000F1EE10FA02D284ED041A3CE094ED213A34
:1028600073EE400AF5EEC00AF1EE10FA01DC70EEEC
:10287000430AF4EEE20AF1EE10FA08D221EE010A60
:1028800025EE041A01EE200A10EE100A18E032EECE
:10289000A40AB4EEE00AF1EE10FA02DD84ED042A97
:1028A00019E031EEE00A25EE841AB5EEC00AF1EE29
:1028B00010FA01DC30EEE10A41EE403A13EE900AE4
:1028C000FDF733FD41EC100B00F048F851EC100B14
:1028D000FDF73EFD206194ED080AD4ED070AB4EE41
:1028E000E00AF1EE10FA05D2D4ED040AF1EE600A26
:1028F000C4ED040AD4ED210A0B4930EEC00AB0EE53
:10290000C00A10EE100A884203DA0120A06384EDA9
:10291000048A10EE100A88427FF745AF0020A063BA
:1029200031E700000000000000004040014A024979
:1029300000F066B8252A0008A80000200907090E43
:10294000002804DB00F1E02080F80014704700F05C
:102950000F0000F1E02080F8141D704700B52DED48
:10296000048BB0EE409AF0EE609A83B051EC190BF4
:10297000FDF760FD41EC180B18EE100A18EE901AE6
:102980008DED008B002818BF0120084320F0004087
:10299000C0F17F6000F1E040C00F14D019EE101AB2
:1029A00019EE900A8DED009B002918BF0121084304
:1029B00020F00040C0F17F6000F1E040C00F04BF94
:1029C000012000F017F8B0EE480A03B0F0EE680AF4
:1029D000BDEC048B00BD02E008C8121F08C1002A2C
:1029E000FAD170477047002001E001C1121F002A90
:1029F000FBD170470149086070470000AC0000201F
:102A00002DE9F04116460F460446002503E03946FD
:102A1000B047641C6D1C20780028F8D12846BDE81A
:102A2000F081000013B54FF6FF730122694602489A
:102A3000FEF768FF00981CBDD800002000681D4A02
:102A4000A0F50070013812D001281AD0022823D036
:102A500003280BD1088840BAA2F8B601488840BACA
:102A6000A2F8B801888840BAA2F8BA01704708886D
:102A700040BAD080488840BA1081888840BA5081D6
:102A80007047088840BA22F8960F488840BA5080AC
:102A9000888840BA90807047088840BAA2F826011A
:102AA000488840BAA2F82801888840BAA2F82A01CA
:102AB0007047000098010020FEF718FAFFF786FC27
:102AC000FFF716F8FEF7D4FFFFF75CF800F028F8E0
:102AD000FEF7F0FF00F036F8FEE710B5EFF30581E2
:102AE00011B16FF0050403E0002408B100F01CFEF2
:102AF000204610BD10B54FF00001EFF305826AB912
:102B000048B1D0E902202AB1202807D3104600F0AE
:102B10005BFF02E010B900F049FF0146084610BD16
:102B2000EFF3058010B16FF00500704704480168AD
:102B300011B14FF0FF307047012101600020704754
:102B40007800002010B5EFF3058010B16FF005009C
:102B500010BD08480168012902D04FF0FF3010BDB8
:102B6000054A002182F8141D0221016000F0A2FE36
:102B7000002010BD780000200BE000E02DE9FF41AF
:102B80000B464FF00005EFF30581039549BB40B3B9
:102B90008026182100244AB3176807B13C4697697C
:102BA00007B139464F1E382F02D21779FF0703D0DD
:102BB000002004B0BDE8F081576907B1BE08D2F823
:102BC00008C0BCF1000F0DD0D5685C2D18D3126978
:102BD0003AB137B18DE806103246214601F0F1FADC
:102BE00003900DE0D7685FB912694AB903AACDE92D
:102BF0000012B2B2214601F0B7FA012800D00395C5
:102C00000398D6E72DE9F041134E0F460446F568C8
:102C10003068001D00F04AFC601C07D137B13168F4
:102C2000BDE8F0410D48091D00F09CBC30682C4403
:102C3000AC424460316805D2B06BBDE8F041091D7B
:102C400000F078BC706B091D00F074FCB06A84421F
:102C500000D2B462BDE8F08128000020080F0020F7
:102C60002DE9F041054600F089FC2D4EB068401C6E
:102C7000B06030682B4F10B1706930B32BE0356015
:102C8000B068012827D1002404EB840007EB800002
:102C900000F042FC641C382CF6D3234800F03CFCC6
:102CA0002148143000F038FC1F48283000F034FC74
:102CB0001D483C3000F030FC1B48503000F02CFC2C
:102CC000194870631430B06305E03068E96AC06A7F
:102CD000884200D83560706A401C70626864E86A97
:102CE0003169884200D9306100EB800007EB800039
:102CF000291D00F037FC00F061FC706900280CD041
:102D00003068E96AC06A884207D208494FF08050AB
:102D10000860BFF34F8FBFF36F8FBDE8F0810000F5
:102D200028000020580A0020B80E002004ED00E022
:102D300038B500F023FC104C2068C8B90F4800F0EB
:102D4000EBFB0E48143000F0E7FB0C48E060143059
:102D500020610A4B0020F03B009003F1500210214B
:102D60000A2000F0A1FF206010B105A100F0A8FC2E
:102D7000BDE8384000F022BC640000200C100020A8
:102D8000546D72510000000030B4026C0B46002AF2
:102D90000BD0C1681144C1608468A14201D30168AD
:102DA000C16030BC1846FDF79CBA30BC70472DE9B5
:102DB000F041856B174604460026026C82B1C7B10C
:102DC000E068FDF78EFAE168206C091AE16022687C
:102DD000914202D2A168081AE060022F16D017E0D3
:102DE0002068A8B9A06801F091FA06460020A0600A
:102DF0000EE06068FDF775FA216C60680844606059
:102E0000A168884204D32068606001E005B16D1EAE
:102E10006D1CA5633046BDE8F08110B5044690F8FE
:102E2000590058B101280CD002280FD0502080F34F
:102E30001188BFF34F8FBFF36F8FFEE7206B00F059
:102E4000D1FB2046BDE8104000F0CCBB10BD000017
:102E500010484FF47051420706D0C01D0D4920F0B4
:102E60000700411AC1F570510B4A00230144C2E921
:102E700000030839183A21F0070111604B600B601C
:102E80000B1AC0E9001393604FF00040536050618B
:102E900070470000EC16002094000020134E144DE3
:102EA000A6F29C474FF08058DFF8489011E000F000
:102EB00065FBF068C468201D00F0F8FAA868401EA1
:102EC000A8606868401E686000F078FB2046FFF745
:102ED000A4FF68680028EAD138680128F9D9C9F840
:102EE0000080BFF34F8FBFF36F8FF2E7F40E002027
:102EF0002800002004ED00E070B51D46049C49B197
:102F00002260C4E90F010121204600F001FF84F88E
:102F10004C5070BD2460F4E72DE9F05F0E46DDE90A
:102F20000B941746834691009A460A9DA522206B72
:102F3000FDF7E9F96FF00301206B01EB870108440D
:102F400020F00707780707D0502080F31188BFF3DF
:102F50004F8FBFF36F8FFEE74FF0000866B1002080
:102F60002218315C82F83410315C11B1401C1028F9
:102F7000F6D384F8438001E084F83480382D00D300
:102F80003725E562C4E91358201D00F0D0FA04F19A
:102F9000180000F0CCFA2461C5F138006462A06129
:102FA000C4F8548084F8588052465946384600F098
:102FB00067FA2060B9F1000F01D0C9F80040BDE800
:102FC000F09F000030B5114900E011460A688242C6
:102FD000FBD34B685C18844203D1406818444860B6
:102FE000084643681C18944209D1084C183C2468D0
:102FF000A24209D052681A4442600A68126802600C
:10300000814200D0086030BD0460F9E794000020E0
:1030100070B5002441600B4D0061914206D8D11A71
:103020008269914206D2011D286907E09A4203D2C3
:10303000994201D3012403E0011DE86800F07AFA07
:10304000204670BD6400002010B5044600F096FADA
:10305000A06B20B1002400F0B1FA204610BD01247D
:10306000F9E7000030B587B03C4D6EE001980028CC
:1030700006DADDE90301029A90470198002864DB33
:10308000039C606910B1201D00F010FA05A800F043
:10309000D7F8024601980A2857D2DFE800F0050564
:1030A000052D334A05052D3394F8280040F0010022
:1030B00084F828000298A169034601442046FFF7DE
:1030C000A7FF68B3216A2046884794F82800400784
:1030D0003BD5002000900298A169002342181946B0
:1030E000204601F019FAD8B9502080F31188BFF3B7
:1030F0004F8FBFF36F8FFEE714F8280F20F0010009
:10310000207022E094F8280040F0010084F82800A4
:103110000298A06128B1811813462046FFF778FF76
:1031200013E0502080F31188BFF34F8FBFF36F8FF0
:10313000FEE794F82800810703D4204600F052FAF5
:1031400003E020F0010084F82800002201A928688B
:1031500000F034FF002889D107B030BD64000020A2
:103160002DE9FC410F46054600F0E6FB01A800F002
:1031700067F80446019818B101F03EF9BDE8FC81FA
:10318000254EAFB130690068D0B30027291B3A46FD
:10319000306800F0A7FA01F02FF90028EED11F499E
:1031A0004FF080500860BFF34F8FBFF36F8FE5E79C
:1031B000A542EBD801F020F9F0682746C068C46842
:1031C000201D00F073F994F82800410719D5A06973
:1031D0002B4641193A462046FFF71AFFA8B10020B6
:1031E0000346014600902A46204601F095F960B951
:1031F000502080F31188BFF34F8FBFF36F8FFEE72E
:1032000007E020F0010084F82800216A2046884762
:10321000B4E70127BAE700006400002004ED00E0F5
:103220000648416B096829B1416BC968C96849689A
:10323000816270474FF0FF31FAE70000280000205C
:1032400070B5054600F0F8FF064E0446B0688442AB
:1032500003D200F009F8012000E000202860204699
:10326000B46070BD64000020F8B5194E20E0C0685D
:10327000C4680568201D00F019F9216A20468847B6
:1032800094F82800400713D5A0692844A84206D91D
:1032900024616060211DF06800F04CF908E0002016
:1032A0000346014600902A46204601F035F938B120
:1032B000F06801680029DAD13169C6E90310F8BD68
:1032C000502080F31188BFF34F8FBFF36F8FFEE75D
:1032D0006400002008484068401C4FF0500080F314
:1032E000118804D0BFF34F8FBFF36F8FFEE7BFF39A
:1032F0004F8FBFF36F8FFEE79C0000200346002036
:1033000012B1994302D070470B42FCD001207047A4
:10331000084CE068016839B1002139B10020FFF79D
:103320001FFFFFF79FFEF4E70121F6E7C068006882
:10333000F5E70000640000202DE9F041044600F0AC
:103340001DF994F9455004F1240609E0606A48B17A
:10335000304601F019F808B100F014FA6D1E6DB294
:10336000002DF3DC4FF0FF3684F8456000F026F9BD
:1033700000F004F994F9445004F1100709E02069C1
:1033800048B1384601F000F808B100F0FBF96D1EB5
:103390006DB2002DF3DC84F84460BDE8F04100F02C
:1033A0000DB900002DE9F0410546002600F0C4FAF1
:1033B000324F386808B9FFF74BFD786905424ED1A6
:1033C000C5B3083568070ED005F00700C0F1080046
:1033D0000544680707D0502080F31188BFF34F8F52
:1033E000BFF36F8FFEE72DB37868854237D8234946
:1033F00018310846046801E0214604466068A84286
:1034000002D220680028F7D13868844227D00E689D
:103410002068086060680836411B10290FD96019C0
:10342000420708D0502080F31188BFF34F8FBFF3BD
:103430006F8FFEE713E041606560FFF7C3FD6168D1
:103440007868401A7860BA68904200D2B8607869AB
:1034500001430020C4E90001F868401CF86000F056
:10346000CBFF700707D0502080F31188BFF34F8F38
:10347000BFF36F8FFEE73046BDE8F0817C0000208F
:1034800010B5031F4FF080741C601B1F21F0010159
:103490001960191F044B0B6014390A60091F6FF083
:1034A000020244380A6010BDD5320008D0E901326A
:1034B00001699A60D0E901235A604A68824201D1C9
:1034C00082684A60002202610868401E086008683D
:1034D00070470000044908680A688069D26A096870
:1034E000C2F138028A61704728000020034B036054
:1034F00003F15C00086080201060704734100020E9
:10350000044B036003F15C0008604FF480701060AE
:10351000704700009012002000F108014FF0FF32C8
:10352000C0E90112C1600161002101607047002102
:103530000161704730B50C68621C02D000F10802CE
:1035400002E0026904E01A4653681D68A542FAD9F0
:1035500053684B6099608A60516008610168491C3A
:10356000016030BD42684A6093688B60936859601F
:10357000916008610168491C01607047502080F328
:103580001188BFF34F8FBFF36F8F0A494868401C03
:10359000486001280CD10848006810F0FF0F07D0E0
:1035A000502080F31188BFF34F8FBFF36F8FFEE77A
:1035B000704700009C00002004ED00E008494868C6
:1035C00028B1401E486001D180F311887047502017
:1035D00080F31188BFF34F8FBFF36F8FFEE70000BA
:1035E0009C00002070B500282AD0164DA0F10804D8
:1035F00060686969084207D1502080F31188BFF3E1
:103600004F8FBFF36F8FFEE722683AB1502080F3EF
:103610001188BFF34F8FBFF36F8FFEE78843606061
:1036200000F08AF960686968084468602046FFF71E
:10363000C9FC2869401C2861BDE8704000F0DCBE70
:1036400070BD00007C0000204FF0E02000210161EF
:10365000816105494FF47A720968B1FBF2F1491EA4
:1036600041610721016170471800002010B5FCF787
:10367000F1FD114910280ED300F1E02090F8F0037D
:103680000A78904207D2502080F31188BFF34F8F01
:10369000BFF36F8FFEE709480068896800F4E060B7
:1036A000884207D9502080F31188BFF34F8FBFF3B2
:1036B0006F8FFEE710BD00009C0000200CED00E0C5
:1036C00010B5074B002253F832401CB1521C082A97
:1036D000F9D310BD43F8321003EBC201486010BDAE
:1036E000180A002070B515460E460446FFF746FF3F
:1036F00094F944100020491C01D184F8440094F945
:103700004510491C01D184F84500FFF757FFA06B15
:1037100028B92A46314604F1240000F051F8204629
:10372000BDE87040FFF708BE10B5020014D00F4886
:10373000006B38B1502080F31188BFF34F8FBFF377
:103740006F8FFEE700F0F8F800211046FFF75AFAF5
:1037500000F052FE002807D105494FF08050086064
:10376000BFF34F8FBFF36F8F10BD00002800002004
:1037700004ED00E002490A6A0260C96841607047CE
:103780002800002001490120C8617047280000205E
:1037900010B50C4650B1094909681831FFF7CAFE47
:1037A0002046BDE810400121FFF72CBA502080F3DD
:1037B0001188BFF34F8FBFF36F8FFEE72800002003
:1037C00070B514460D4668B10A4909681831FFF70B
:1037D000C9FE0CB14FF0FF3521462846BDE87040C8
:1037E000FFF710BA502080F31188BFF34F8FBFF35B
:1037F0006F8FFEE72800002010B5144680B1104BF3
:103800001A6BAAB11A6841F0004191611968183128
:10381000FFF7A8FE2046BDE810400121FFF7F2B9EE
:10382000502080F31188BFF34F8FBFF36F8FFEE7F7
:10383000502080F31188BFF34F8FBFF36F8FFEE7E7
:103840002800002070B5194D2A6BF2B141F00041FB
:103850000160C4680CB3FFF729FE201DFFF726FEA8
:10386000E06A2969884200D9286100EB800110488C
:1038700000EB8100211DFFF775FEE06A2968C96A27
:10388000884201D90120E86170BD502080F3118881
:10389000BFF34F8FBFF36F8FFEE7502080F3118887
:1038A000BFF34F8FBFF36F8FFEE7000028000020AB
:1038B000580A002030B587B00025039505AA04A951
:1038C00003A80495FFF712FEDDE903010095CDE999
:1038D0000110002314A11648059A00F072FC154C43
:1038E000E06218B100F0E8FD012809D0401C19D1B0
:1038F000502080F31188BFF34F8FBFF36F8FFEE727
:10390000502080F31188BFF34F8FBFF36F8F4FF0BC
:10391000FF30A06201206061E56007B0BDE8304083
:1039200000F032B907B030BD49444C4500000000FA
:103930009D2E0008280000200248016B491C0163ED
:103940007047000028000020164B10B5186B10B10E
:103950000120D86110BD0020D8611869124901E02A
:10396000B8B1401E00EB800251F82220002AF7D0A7
:1039700000EB800201EB820101F108044A68526801
:103980004A60A24201D152684A60D1681960186148
:1039900010BD502080F31188BFF34F8FBFF36F8F9E
:1039A000FEE7000028000020580A002070B5202003
:1039B000FFF7F8FC040005D00025201D2560FFF767
:1039C000ABFD2577204670BD38B558B1202104469F
:1039D000002000912060201DFFF79EFD0120207730
:1039E000204638BD502080F31188BFF34F8FBFF3BE
:1039F0006F8FFEE72DE9F0410025884604000AD0CC
:103A00005FEA18600FD0502080F31188BFF34F8F0A
:103A1000BFF36F8FFEE7502080F31188BFF34F8F05
:103A2000BFF36F8FFEE7261D04F10C07FFF784FF3D
:103A30002168F06841EA0801216017E0D0E900162A
:103A400001F07F425301236821F07F4102D40B42F1
:103A500003D10AE031EA030307D1D20100D50D43B7
:103A6000216841F00071FFF7EDFE3046B842E5D124
:103A70002068A843206000F0BFFC2068BDE8F0810A
:103A80002DE9F0479A46089F91460D4604004FF0F5
:103A9000000609D0280E0FD0502080F31188BFF304
:103AA0004F8FBFF36F8FFEE7502080F31188BFF375
:103AB0004F8FBFF36F8FFEE71DB100F0AFFB40B13A
:103AC00010E0502080F31188BFF34F8FBFF36F8F4A
:103AD000FEE73FB1502080F31188BFF34F8FBFF353
:103AE0006F8FFEE7FFF728FFD4F800805246294683
:103AF0004046FFF703FC40B100274646B9F1000FEE
:103B000015D02068A843206011E0AFB1B9F1000FD3
:103B100001D04FF08076BAF1000F01D046F08066F8
:103B200045EA06013A46201DFFF766FE002600F032
:103B300063FC1FB310B109E04646F8E711494FF0A6
:103B400080500860BFF34F8FBFF36F8FFFF7C2FC49
:103B50000646800110D4FFF711FD2668524629461B
:103B60003046FFF7CBFB28B1B9F1000F02D0206837
:103B7000A8432060FFF722FD26F07F463046BDE8CF
:103B8000F087000004ED00E01CB537480168374AB3
:103B9000914207D1502080F31188BFF34F8FBFF3BC
:103BA0006F8FFEE700683149491E884207D15020D7
:103BB00080F31188BFF34F8FBFF36F8FFEE72C495F
:103BC00008780190FF20087008788DF800009DF8B3
:103BD00000009DF8002000F0F000904207D0502037
:103BE00080F31188BFF34F8FBFF36F8FFEE79DF80F
:103BF0000000204C00F0500020700720A06006E07C
:103C0000401EA0609DF8000040008DF800009DF867
:103C100000000006A068F3D4032807D0502080F3EA
:103C20001188BFF34F8FBFF36F8FFEE74FF44070E3
:103C3000A060019808700C482030016841F47001C0
:103C40000160016841F070410160FFF7FDFC002058
:103C50006060FCF7C7FA0848016841F04041016024
:103C6000FCF7ACFA00201CBD00ED00E071C20F4172
:103C700000E400E09C00002034EF00E010B550208C
:103C800080F31188BFF34F8FBFF36F8F00F0DAFA24
:103C900018B104494FF080500860002080F311886B
:103CA00010BD000004ED00E038B5049D18B153B11B
:103CB000CAB181B120E0502080F31188BFF34F8F4B
:103CC000BFF36F8FFEE7502080F31188BFF34F8F53
:103CD000BFF36F8FFEE7502080F31188BFF34F8F43
:103CE000BFF36F8FFEE739B1502080F31188BFF327
:103CF0004F8FBFF36F8FFEE750241C46012384F8DB
:103D000046302B460094FFF7F7F8204638BD0000F8
:103D100070B50D46040025D0FFF730FCD4E90F2024
:103D2000216802FB0011A1600021A163216861608C
:103D30000A46D4E90F01401E00FB0121E160214643
:103D40004FF0FF3001F8440F487004F110008DB1BE
:103D5000FFF7E2FB04F12400FFF7DEFBFFF72EFC88
:103D6000012070BD502080F31188BFF34F8FBFF347
:103D70006F8FFEE721690029F0D000F005FB0028D5
:103D8000ECD004494FF080500860BFF34F8FBFF371
:103D90006F8FE3E704ED00E02DE9FF4F83B01F468E
:103DA0008B4604004FF0000603D0BBF1000F08D093
:103DB00011E0502080F31188BFF34F8FBFF36F8F56
:103DC000FEE7206C38B1502080F31188BFF34F8F8D
:103DD000BFF36F8FFEE7022F0AD1E06B012807D0F7
:103DE000502080F31188BFF34F8FBFF36F8FFEE732
:103DF00000F014FADFF800914FF0000A4FF08058FD
:103E000048B9059838B1502080F31188BFF34F8F1F
:103E1000BFF36F8FFEE7FFF7B1FBA06BE16B88424A
:103E200005D3022F03D00598C8B1DEB11EE03A4693
:103E300059462046FEF7BBFF616A19B104F1240020
:103E400000F0A2FA28B1C9F80080BFF34F8FBFF38A
:103E50006F8FFFF7B3FB012007B0BDE8F08FFFF7CE
:103E6000ADFB21E06846FFF785FC0126FFF7A6FBC6
:103E7000FFF762FDFFF782FB94F94400401C01D17B
:103E800084F844A094F94500401C01D184F845A071
:103E9000FFF794FB05A9684600F02CF930B12046E5
:103EA000FFF74AFA00F0A8FA0020D5E7FFF766FB13
:103EB000A06BE16B884201D1012500E00025FFF7EE
:103EC0007DFB95B104F110000599FFF761FC2046D8
:103ED000FFF732FA00F090FA00289CD1C9F8008070
:103EE000BFF34F8FBFF36F8F95E72046FFF724FA9C
:103EF00000F082FA8FE7000004ED00E02DE9F047C2
:103F00001F4690468946040003D0B9F1000F08D03F
:103F100011E0502080F31188BFF34F8FBFF36F8FF4
:103F2000FEE7206C38B1502080F31188BFF34F8F2B
:103F3000BFF36F8FFEE7022F0AD1E06B012807D095
:103F4000502080F31188BFF34F8FBFF36F8FFEE7D0
:103F5000FFF78CFB5020EFF3118680F31188BFF33D
:103F60004F8FBFF36F8FA06BE16B884206D3022F98
:103F700004D0002086F31188BDE8F08794F94550FD
:103F8000A06B3A4649462046FEF711FF681C04D054
:103F90006D1C84F845500120ECE7606A0028FAD0D7
:103FA00004F1240000F0F0F90028F4D0B8F1000F7B
:103FB000F1D00121C8F80010EDE700002DE9F74726
:103FC00083B08A4604004FF0000603D0BAF1000F18
:103FD00008D011E0502080F31188BFF34F8FBFF35A
:103FE0006F8FFEE7206C38B1502080F31188BFF34B
:103FF0004F8FBFF36F8FFEE700F010F9DFF8F090FE
:1040000000274FF0805848B9059838B1502080F308
:104010001188BFF34F8FBFF36F8FFEE7FFF7AEFA44
:10402000A56BC5B151462046FEF7AEFE6D1EA563D9
:10403000206950B104F1100000F0A6F928B1C9F8C8
:104040000080BFF34F8FBFF36F8FFFF7B7FA0120E8
:1040500006B0BDE8F087059808B11EB106E0FFF78D
:10406000ADFA27E06846FFF785FB0126FFF7A6FAC1
:10407000FFF762FCFFF782FA94F94400401C01D17B
:1040800084F8447094F94500401C01D184F84570CF
:10409000FFF794FA05A9684600F02CF8002820469E
:1040A0000AD0FFF749F900F0A7F92046FEF7CCFF48
:1040B0000028B3D00020CBE7FEF7C6FF90B104F193
:1040C00024000599FFF764FB2046FFF735F900F05F
:1040D00093F90028A2D1C9F80080BFF34F8FBFF336
:1040E0006F8F9BE72046FFF727F900F085F995E7EA
:1040F00004ED00E02DE9F0410C46050011D0C4B1FB
:10410000FFF73CFA174EF1686B682268C81A571C13
:1041100017D02F68366AB74219D08B4217D80124BE
:1041200010E0502080F31188BFF34F8FBFF36F8FE3
:10413000FEE7502080F31188BFF34F8FBFF36F8FDE
:10414000FEE70024FFF73AFA2046BDE8F0818242FC
:1041500005D9101A20602846FFF70CFBF1E7002074
:104160002060DCE7280000202DE9FF5F8346DDE9C1
:104170000E87994616468A469000FFF713F9050008
:104180001CD05C20FFF70EF9040014D0002025633A
:1041900084F85900CDE90240CDE900874B4632460C
:1041A00051465846FEF7B8FE2046FEF759FD01205D
:1041B00004B0BDE8F09F2846FFF714FA4FF0FF3037
:1041C000F6E7F0B585B00546DDE90B040A9EA8B117
:1041D000E4B15C2700972063022084F85900002096
:1041E000CDE9024004AF2846CDE90067FEF794FE12
:1041F0002046FEF735FD049805B0F0BD502080F351
:104200001188BFF34F8FBFF36F8FFEE7502080F30D
:104210001188BFF34F8FBFF36F8FFEE705484169E9
:1042200019B1006B18B100207047012070470220BF
:1042300070470000280000200148C0687047000057
:10424000280000202DE9F0412E4F0026386B28B1C0
:10425000B869401CB8613046BDE8F081FD686D1C4E
:10426000FD6013D1786B006838B1502080F311885D
:10427000BFF34F8FBFF36F8FFEE7786BB96B796336
:10428000B863386A401C3862FEF7CAFFB86ADFF8C4
:104290007880854209D3786B0068A0B1786BC068DC
:1042A000C4686068854211D2B8623868C06A00EBA1
:1042B000800158F82100012800D90126F86900285A
:1042C000C9D00126C7E74FF0FF30EDE7201DFFF70B
:1042D000EDF8A06A18B104F11800FFF7E7F8E06AFA
:1042E0003969884200D9386100EB800108EB810010
:1042F000211DFFF737F9E06A3968C96A8842CAD3D5
:104300000126C8E728000020580A002070B50400E4
:104310004FF000002BD01A4D29688C4207D0502056
:1043200080F31188BFF34F8FBFF36F8FFEE7216DCE
:10433000F1B1491E2165E36CE26A9A4217D0002967
:1043400015D1201DFFF7B2F8E06CE062C0F1380033
:10435000A061E06A2969884200D92861094900EB17
:10436000800001EB8000211DFFF7FCF8012070BDEB
:10437000502080F31188BFF34F8FBFF36F8FFEE79C
:1043800028000020580A002070B5C068C46854B1E5
:1043900004F118000646FFF789F8144D286B50B158
:1043A0003146134815E0502080F31188BFF34F8F3A
:1043B000BFF36F8FFEE7201DFFF778F8E06A2969E9
:1043C000884200D928610B4900EB800001EB800096
:1043D000211DFFF7C7F8E06A2968C96A884202D937
:1043E0000120E86170BD002070BD000028000020A1
:1043F000E00E0020580A00202DE9F0472B4D002444
:104400002746286B38B1FFF7B9F8286B401E2863A0
:10441000286B40B145E0502080F31188BFF34F8FE7
:10442000BFF36F8FFEE7A86821490126C8B3A1F545
:1044300091698846D8F80010E1B1D8F80C00C4683A
:1044400004F11800FFF732F8201DFFF72FF8E06A9B
:104450002969884200D9286100EB800109EB8100BD
:10446000211DFFF77FF8E06A2968C96A8842E1D315
:10447000EE61DFE70CB1FEF7D3FEAC693CB1FFF7AC
:10448000E1FE00B1EE61641EF9D10020A861E86987
:1044900038B10849012738070860BFF34F8FBFF3D1
:1044A0006F8FFFF78BF83846BDE8F08728000020B3
:1044B000E00E002004ED00E010B586B0FEF738FCF9
:1044C000114C2068B8B100200390049005AA04A9FB
:1044D00003A8FFF715F8DDE9032102208DE80700A6
:1044E00000230AA10B48059AFFF76BFE606010B12C
:1044F00006B0012010BD502080F31188BFF34F8F0C
:10450000BFF36F8FFEE7000064000020546D72203F
:1045100053766300113300082DE9FF411F46030065
:104520000A9E4FF0000015D0134D2C68002C0ED0C1
:104530008DE80E00062917DAFFF770FE02284FF00B
:1045400000030FD0002269462868FFF725FC04B05D
:10455000BDE8F081502080F31188BFF34F8FBFF387
:104560006F8FFEE73246EEE700233A466946204663
:10457000FFF7C4FCEBE700006400002004460008DD
:10458000000000000000000000000000000000002B
:104590000002000018000000000000000000000001
:1045A000F8450008000000000000000000000000C6
:1045B00000000000000200001A00000000000000DF
:1045C00000000000EC4500080000000000000000B2
:1045D00000000000000000000000000001020304D1
:1045E0000607080900000000010203046D79457602
:1045F000656E7430310000006D795461736B303238
:104600000000000064656661756C745461736B0032
:104610003046000800000020B0000000D629000845
:10462000E0460008B000002040560000E6290008DF
:104630000000000000000000000000000100000079
:1046400010000000000000000024F4000000000042
:10465000000000000000000000000000000000005A
:10466000000000000000000000000000000000004A
:10467000000000000000000000000000000000003A
:10468000000000000000000000000000000000002A
:10469000000000000000000000000000000000001A
:1046A000000000000000000000000000000000000A
:1046B00000000000000000000000000000000000FA
:1046C00000000000000000000000000000000000EA
:1046D000AAAAAAAA00000000000000000000000032
:040000050800018965
:00000001FF
