:020000040800F2
:10000000B0510020E9020008031B00085119000844
:10001000011B00081F060008B921000800000000AD
:10002000000000000000000000000000290200089D
:100030002D06000800000000850200081D1F0008B2
:100040000303000803030008030300080303000878
:100050000303000803030008030300080303000868
:100060000303000803030008030300080303000858
:100070000303000803030008030300080303000848
:100080000303000803030008030300080303000838
:100090002106000803030008030300080303000807
:1000A0000303000803030008030300080303000818
:1000B000D91F000803030008030300080303000816
:1000C00003030008030300080303000803030008F8
:1000D00003030008030300080303000803030008E8
:1000E00003030008030300080303000803030008D8
:1000F00003030008030300080303000803030008C8
:1001000003030008030300080303000803030008B7
:1001100003030008030300080303000803030008A7
:100120000303000803030008030300080303000897
:100130000303000803030008030300080303000887
:100140000303000803030008030300080303000877
:100150000303000803030008030300080303000867
:100160000303000803030008030300080303000857
:100170000303000803030008030300080000000055
:10018000030300080303000800F002F800F03CF845
:100190000AA090E8000C82448344AAF10107DA45E2
:1001A00001D100F031F8AFF2090EBAE80F0013F0F8
:1001B000010F18BFFB1A43F0010318475C3C000015
:1001C0007C3C0000103A24BF78C878C1FAD85207A6
:1001D00024BF30C830C144BF04680C6070470000C1
:1001E0000023002400250026103A28BF78C1FBD840
:1001F000520728BF30C148BF0B6070471FB503F0DE
:10020000BBFD1FBD10B510BD00F0D0F91146FFF7C2
:10021000F5FF02F04FF800F0EEF903B4FFF7F2FF3C
:1002200003BC00F0F5F900002C4B19680868B0E831
:10023000F04F80F30988BFF36F8F4FF0000080F319
:10024000118870470000000008480068006880F3CB
:1002500008884FF0000080F3148862B661B6BFF3DF
:100260004F8FBFF36F8F00DF00BF00BF08ED00E0CE
:10027000DFF80C00016841F470010160704700BFB5
:1002800088ED00E0EFF30980BFF36F8F134B1A681E
:100290001EF0100F08BF20ED108A20E9F04F10600B
:1002A00009B44FF0500080F31188BFF34F8FBFF3B4
:1002B0006F8F02F047FF4FF0000080F3118809BCF8
:1002C00019680868B0E8F04F1EF0100F08BFB0ECD6
:1002D000108A80F30988BFF36F8F704724000020D5
:1002E000EFF3058070470000094880470948004740
:1002F000FEE7FEE7FEE7FEE7FEE7FEE7FEE7FEE7D6
:10030000FEE7FEE704480549054A064B7047000032
:10031000C91F000889010008B04B0020B05100201F
:10032000B04D0020B04D002053EA020C00F069806F
:100330002DE9F04B4FF00006002B1FBFB3FA83F5F9
:1003400003FA05F424FA05F65E4012BF1643B2FA2A
:1003500082F502FA05F4C5F120051EBF22FA05FC5C
:1003600044EA0C04203556EA044C4FEA144418BF02
:10037000641C4FF000084FF00009904271EB030C31
:1003800039D3002919BFB1FA81F701FA07F6B0FA9B
:1003900080F700FA07F6C7F120071EBF20FA07FC16
:1003A00046EA0C062037B6FBF4FCA7EB0507103F26
:1003B00007F01F0BCBF120060CFA0BFB2CFA06F60C
:1003C00044BFB3460026202FA4BF5E464FF0000B6B
:1003D0005BEA060C08BF4FF0010B19EB0B09ABFBF6
:1003E000027C48EB0608C01B06FB02CC0BFB03CCCF
:1003F00071EB0C01C1E70B46024641464846BDE899
:10040000F08B13B54FF000004FF00001AFF3008008
:10041000BDE81C407047032A40F2308010F0030C06
:1004200000F0158011F8013BBCF1020F624498BF47
:1004300011F801CB00F8013B38BF11F8013BA2F1E4
:10044000040298BF00F801CB38BF00F8013B11F05F
:10045000030300F05780083AC0F0088051F8043BCD
:10046000083A51F804CBA0E80810F5E7121D5CBF6C
:1004700051F8043B40F8043BAFF30080D20724BF9F
:1004800011F8013B11F801CB48BF11F8012B24BF33
:1004900000F8013B00F801CB48BF00F8012B704782
:1004A00002F0FF0343EA032242EA024200F05EB890
:1004B0004FF0000200B5134694469646203922BFFD
:1004C000A0E80C50A0E80C50B1F12001BFF4F7AF48
:1004D000090728BFA0E80C5048BF0CC05DF804EB2A
:1004E000890028BF40F8042B08BF704748BF20F898
:1004F000022B11F0804F18BF00F8012B7047704796
:100500007047704710B5203AC0F00B80B1E8185022
:10051000203AA0E81850B1E81850A0E81850BFF4ED
:10052000F5AF5FEA027C24BFB1E81850A0E818508C
:1005300044BF18C918C0BDE810405FEA827C24BFE0
:1005400051F8043B40F8043B08BF7047D20728BF6E
:1005500031F8023B48BF11F8012B28BF20F8023BBD
:1005600048BF00F8012B70474FF000020429C0F08B
:10057000128010F0030C3FF49DAFCCF1040CBCF1E1
:10058000020F18BF00F8012BA8BF20F8022BA1EB27
:100590000C01FFF78FBF5FEAC17C24BF00F8012B7D
:1005A00000F8012B48BF00F8012B7047754600F09A
:1005B0002BF8AE4605006946534620F007008546F5
:1005C00018B020B5FFF79EFEBDE820404FF00006B2
:1005D0004FF000074FF000084FF0000B21F007012B
:1005E000AC46ACE8C009ACE8C009ACE8C009ACE86E
:1005F000C0098D46704710B50446AFF30080204611
:10060000BDE81040FFF709BE00487047504B00207E
:1006100001491820ABBEFEE7260002007047FEE746
:10062000014800F078B90000A4000020704772B6BD
:10063000FEE790F82020012A07D0022A05D0416A5F
:1006400041F48021416201207047006842690A43F9
:10065000426100207047F0B590F820500468A4680B
:10066000012D05D0022D03D0416A41F4802153E0D1
:1006700014F0406F01D1E5004BD5C4F30164022CA6
:1006800003D9416A41F4000146E00125A5401D60FF
:100690008B684FF4C0759BB1CE6833434E6843EA14
:1006A000C603066805EB0417F3514FF4C2730768DD
:1006B00003EB04130E69FE50097D012905D009E002
:1006C0000E88CB6843EA4653EBE70168CE5846F400
:1006D0008076CE501179D2F805304FF4C67641EAD3
:1006E0000323016806EB04168B511178D2F8012020
:1006F0004FF4C47341EA0221026803EB0413D150A2
:10070000006805EB0411425842F0010242500020FB
:10071000F0BD416A41F4001141620120F0BD0000CA
:1007200010B590F82020012A07D0022A05D0416A8E
:1007300041F480214162012010BD3B48D0F80022E5
:1007400042F00102C0F80022D0F8002222F47C52CC
:10075000C0F80022D0F800224B6A42EA0322C0F817
:1007600000220A7D02F01F0301229A40D0F81C32B9
:100770009343C0F81C32CB69B3B9D0F80C32934321
:10078000C0F80C328C894B6864F31F434C6900EB52
:10079000C404C4F840320C890B6864F31F434C69ED
:1007A00000EBC404C4F84432CB69012B16D1D0F855
:1007B0000C321343C0F80C320C884B6864F31F43AF
:1007C0004C6900EBC404C4F840320C89CB6864F374
:1007D0001F434C6900EBC404C4F844328B69002BFE
:1007E000D0F804320ED01343C0F804320B69002B4A
:1007F000D0F8143208D01343C0F81432096A012922
:1008000004D008E09343EFE79343F5E7D0F81C12D8
:100810001143C0F81C12D0F8001221F00101C0F8F9
:100820000012002010BD000000640040704730B589
:1008300090F82040012C05D0022C03D0416A41F4ED
:1008400080215DE00468002955D02469A40754D0B4
:100850004FF4D874056804EB01142D5915F0040504
:10086000956005682D594ED0ED08556005682C59E6
:1008700004F00204D4604FF4DA74056804EB011448
:100880002D5905F00F05156105682D59C5F307258C
:10089000956105682C59240C54614FF4DC7204688E
:1008A00002EB0112A4581C700468A458240A5C705E
:1008B0000468A458240C9C700468A258120EDA70C4
:1008C0004FF4DE72046802EB0112A4581C71046834
:1008D000A458240A5C710468A458240C9C71046810
:1008E000A258120EDA71006881B1016941F020014D
:1008F0000161002030BDE468A8E7416A41F40011BD
:100900004162012030BD6D0D1560AFE7C16841F057
:100910002001C160EDE72DE9F05F05460068002485
:100920004669D0F804908768D0F80CB0D0F810A0D1
:10093000D0F81880F10748D0F90714D00121816060
:10094000B80703D5284600F0F0F90CE0780702D587
:100950004FF4006407E0380702D54FF4805402E0FA
:10096000284600F0E1F9F80516D529684FF48070A3
:100970008860B80503D5284600F0D9F90CE0780561
:1009800002D544F4005407E0380502D544F480440D
:1009900002E0284600F0CAF9F80316D529684FF49A
:1009A00080308860B80303D5284600F0C2F90CE017
:1009B000780302D544F4004407E0380302D544F438
:1009C000803402E0284600F0B3F9300707D55FEA2B
:1009D000CB6004D52968102044F40074C860700707
:1009E0004FF0080707D55FEA0B7004D52868C76089
:1009F000284600F059F9B00706D52868C068800776
:100A000002D0284600F052F9700607D55FEACA60A6
:100A100004D52968102044F480640861B00607D525
:100A20005FEA0A7004D528680761284600F04EF98D
:100A3000F00606D528680069800702D0284600F035
:100A400046F9B00308D55FEAC96005D529681020CA
:100A50004860284600F03CF9F00307D55FEA0970CA
:100A600004D528684760284600F064F9300446D56C
:100A70005FEA497040D5F00504D55FEAC87001D03F
:100A800044F00104B00504D55FEA887001D544F054
:100A90000204700504D55FEA487001D544F00404EF
:100AA000300529D518F0700F26D008F070004028C6
:100AB00015D006DC102809D020280AD0302816D1FD
:100AC0000AE050280ED0602811D10EE044F008044E
:100AD0000DE044F010040AE044F0200407E044F084
:100AE000400404E044F0800401E044F48074286889
:100AF000816921F070018161296804204860002C1F
:100B000005D0686A204368622846FFF78FFEBDE87B
:100B1000F09F70B5040003D094F8200010B104E0F9
:100B2000012070BD204600F081F82068016841F086
:100B30000101016000F0F2F90546052604E000F02D
:100B4000EDF9401B0A2811D820684068C007F6D08C
:100B50002068016821F00201016000F0DFF905461C
:100B60000BE000F0DBF9401B0A2806D9606A40F46C
:100B70000030606284F82060D2E720684068800717
:100B8000EFD4207E0128206801683DD021F080014B
:100B90000160607E01282068016838D021F04001A2
:100BA0000160A07E01282068016833D021F0200177
:100BB0000160E07E0128206801682ED041F010011C
:100BC0000160207F01282068016829D021F00801F8
:100BD0000160607F01282068016824D021F00401B1
:100BE0000160D4E902010843D4E904121143084327
:100BF0006168491E08432168C861002060620120C5
:100C000084F82000002070BD41F08001C0E741F071
:100C10004001C5E741F02001CAE721F01001CFE70C
:100C200041F00801D4E741F00401D9E710B586B0DE
:100C3000044614216846FFF73BFC184920688842A7
:100C400029D117480021026842F000720260006852
:100C500000F00070059012481038026842F001025E
:100C60000260006800F0010005904FF4C050009051
:100C70000220CDE901010320039009200490694678
:100C8000084800F059F800220521142000F0E4F98A
:100C9000142000F0D3F906B010BD0000006400403D
:100CA00040380240000002407047000000B587B0A5
:100CB000054B6A460021FFF7BAFD0349684601F07B
:100CC000C3FA07B000BD00001C0000207047704749
:100CD000704770B5044690F82000012804D0606A7F
:100CE00040F40020606217E0022084F820002068B1
:100CF000016821F00101016000F010F905460DE0E6
:100D000000F00CF9401B0A2808D9606A40F4003052
:100D10006062052084F82000012070BD20684068D2
:100D2000C007EDD1606270BD704770477047704773
:100D300070477047704700002DE9F84FDFF89C912D
:100D40000022A9F1040B03274FF00F0C09F1040A4C
:100D5000ABF1040E01250B6895402B40AB426ED1E0
:100D60000C7904F00304012C01D0022C15D1866803
:100D7000540007FA04F826EA0806D1F80C8008FAAD
:100D800004F848EA0608C0F808804468AC430D79C6
:100D9000C5F300159540254345600C79E443A4074D
:100DA00008D0C568540007FA04F6B5438E68A6401B
:100DB0002E43C6600C7904F00304022C11D1D40830
:100DC00000EB8406356A5407E40E0CFA04F825EAB1
:100DD0000805D1F8108008FA04F848EA0508C6F8B2
:100DE00020800568540007FA04F6B5430E7906F032
:100DF0000306A6402E4306604C6814F4403F66D0BC
:100E0000374C256845F480452560246822F00305A9
:100E100004F480440094334C05EB0408D8F80858D7
:100E20009407260F0CFA06F4A5432F4CA04201D1DB
:100E3000002424E02D4CA04202D101241FE046E012
:100E40002B4CA04201D1022419E02A4CA04201D12E
:100E5000032414E0284CA04201D104240FE0274CC5
:100E6000A04201D105240AE0254CA04201D106246C
:100E700005E0244CA04201D1072400E00824B4403E
:100E80002C43C8F80848D9F800404D464E689C43AA
:100E9000F60200D51C432C60DAF8004055464E6837
:100EA0009C43B60200D51C432C60DBF800405D4635
:100EB0004E689C43B60300D51C432C60DEF800400E
:100EC00075464E689C43F60300D51C432C60521CAB
:100ED000102AFFF43FAFBDE8F88F0000083C014046
:100EE000443802400030014000000240000402404B
:100EF00000080240000C02400010024000140240B2
:100F000000180240001C02400069084000D0012087
:100F100070470AB1816170470904FBE701488068A6
:100F2000704700000C0000200248816802781144DC
:100F3000816070470C0000200B4810B5016841F437
:100F400000710160016841F480610160016841F451
:100F500080710160032000F09FF80F2000F006F878
:100F600000F050F8002010BD003C024030B50546AE
:100F7000204887B00024016841F001010160006849
:100F800006A900F001000590684600F031F90398C9
:100F9000B0B100F04DF9400017494FF08042B0FB6E
:100FA000F1F11648491E026040F2E732C0E903241D
:100FB000C0E90114846100F039FB040003D015E09E
:100FC00000F036F9E8E70D4800F05EFB04000DD1B3
:100FD0001C2000F033F8102D07D2002229461C20D7
:100FE00000F03AF80648056000E0012407B020460A
:100FF00030BD00004038024040420F001001002088
:10100000100000200C4882B0016841F4804101606A
:10101000006800F4804000900748001F016841F01C
:10102000805101600068002200F0805000900F2184
:10103000901E02B000F010B844380240002809DBCE
:1010400000F01F02012191404009800000F1E020E2
:10105000C0F8001170470000F0B40E4B1B68C3F3DA
:101060000223C3F10704042C00D904241D1D072DFD
:1010700001D2002300E0DB1E012606FA04F56D1EF6
:101080000D409D409E40761E164045EA0601F0BC8C
:1010900001F0CAB80CED00E0064A00F00701106844
:1010A0004FF6FF03184040EA01200349084310604F
:1010B000704700000CED00E00000FA052DE9F04754
:1010C0000D46040065D0DFF81491D9F80000EFB2A6
:1010D00000F00700A84207D289F80070D9F8000094
:1010E00000F00700A84254D120683D4E810712D578
:1010F000400703D5306840F4E050306020780007A6
:1011000003D5306840F4604030603068A16820F05A
:10111000F000084330602078C0072DD03049606867
:101120000839012812D0022813D0032811D00968E9
:10113000890700292DDA316821F00301014331606C
:10114000FFF7ECFE804641F2883A0EE00968890319
:10115000EFE709688901ECE7FFF7E0FEA0EB080183
:10116000514502D90320BDE8F0873068616800F07E
:101170000C00B0EB810FEFD1D9F80010484601F018
:101180000701A94207D90770006800F00700A842CC
:1011900001D00120E7E72078400705D53068E168F5
:1011A00020F4E050084330602078000706D530680E
:1011B000216920F4604040EAC100306000F058F836
:1011C0003168084AC1F30311515CC8400649086000
:1011D00006480068FFF7CAFE0020C4E7003C024052
:1011E00008380240DC3D00081800002010000020F4
:1011F0000F2202600C4A136803F003034360136874
:1012000003F0F0038360136803F4E053C3601268D3
:101210004FF4E05303EAD20202610448006800F090
:10122000070008607047000008380240003C024098
:101230000448054900680968044AC1F38221515CE9
:10124000C84070471800002008380240EC3D0008F4
:101250000448054900680968044AC1F34231515CF9
:10126000C84070471800002008380240EC3D0008D4
:10127000154810B5006810F00C01144813D0431045
:1012800004290FD008290ED10F4C241F216801F02A
:101290003F022168490207D52068C0F38810A0FBEF
:1012A000030106E0184610BD2168C1F38811A1FBB7
:1012B00000010023FFF738F82168C1F30141491C00
:1012C0004900B0FBF1F010BD083802400024F400E2
:1012D0002DE9F84F040075D02078DFF838A3C00757
:1012E000AAF1040548D00AF104000168C1F38101A4
:1012F000012908D00068C0F3810002280AD1DAF879
:101300000000400206D52868800335D560680028B3
:10131000E1D031E06068B0F5803F10D0B0F5A02F8B
:10132000286810D020F480302860286820F48020BD
:1013300028606068A0B1FFF7F1FD06460CE0286860
:1013400040F48030F4E740F480202860F7E7FFF7AE
:10135000E5FD801B642871D828688003F7D50BE071
:10136000FFF7DCFD064604E0FFF7D8FD801B64288C
:10137000F1D828688003F7D42078DFF89C928007A2
:101380004FF0000B3DD5A348001D016811F00C0F74
:1013900008D00068C0F3810002280AD1DAF8000002
:1013A000400206D42868800715D5E068012809D1D5
:1013B00011E0E068B8B10120C9F80000FFF7AEFD08
:1013C000064605E022E1FFF7A9FD801B0228C2D8EE
:1013D00028688007F7D52868216920F0F80040EADE
:1013E000C10028600DE0C9F800B0FFF797FD064680
:1013F00004E0FFF793FD801B02281FD828688007B0
:10140000F7D42078000722D5824F8448616970376D
:1014100071B101210160FFF781FD064604E0FFF78D
:101420007DFD801B022809D838688007F7D50EE0BB
:10143000C0F800B0FFF772FD064605E082E0FFF756
:101440006DFD801B02287DD838688007F7D420788E
:10145000400765D56F484FF000083C300068C00079
:101460000BD46C483C30016841F080510160006849
:101470004FF0010800F080500090694F3868C005B7
:101480000FD4386840F480703860FFF747FD064697
:1014900004E0FFF743FD801B022853D83868C005DD
:1014A000F7D55C4FA0686C3701280FD00528386845
:1014B00010D020F001003860386820F00400386057
:1014C000A068B0B1FFF72AFD06460EE0386840F08C
:1014D0000100F4E740F004003860F7E7FFF71EFD75
:1014E000811B41F28830814263D838688007F5D586
:1014F0000DE0FFF713FD064606E0FFF70FFD811B29
:1015000041F28830814254D838688007F5D4B8F168
:10151000000F05D03F483C30016821F08051016048
:10152000A069B8B33B49091D0968C1F381010229CB
:1015300046D00228584606D0C9F86000FFF7EEFCF6
:10154000044639E035E04F46C9F86000FFF7E6FC95
:10155000064604E0FFF7E2FC801B022829D8286831
:101560008001F7D4D4E907010843A16A2D4A49084C
:1015700002EB0141626A41EA8211084394F82C109F
:1015800040EA0161CAF8001001203866FFF7C6FC86
:10159000044605E03CE0FFF7C1FC001B022808D828
:1015A00028688001F7D533E0FFF7B8FC001B02285C
:1015B00002D90320BDE8F88F28688001F4D427E021
:1015C0000128F7D0DAF80000E26900F480019142C6
:1015D0001CD1226A00F03F01914217D147F6C07139
:1015E000626A0140B1EB821F10D1A26A4FF0FF3353
:1015F00000F4403103EB5202B1EB024F06D194F8F4
:101600002C1000F07060B0EB016F01D00120D1E729
:101610000020CFE70438024000004742800E4742D6
:10162000007000400000FFFF7047704710B50400D5
:1016300003D094F83D0010B107E0012010BD002058
:1016400084F83C00204600F01EF8022084F83D009B
:10165000211D206800F0C6FC012084F8460084F8B3
:101660003E0084F83F0084F8400084F8410084F88C
:10167000420084F8430084F8440084F8450084F86C
:101680003D00002010BD704790F83D10012901D0A9
:1016900001207047022180F83D100168CA6842F0BD
:1016A0000102CA6000681149884214D0B0F1804F2D
:1016B00011D00F4988420ED00E4988420BD00E49F6
:1016C000884208D00D49884205D00D49884202D091
:1016D0000C49884204D1816801F00701062903D032
:1016E000016841F0010101600020704700000140E5
:1016F0000004004000080040000C004000040140CD
:101700000040014000180040704770B50446006872
:1017100001694FF00005C943890715D4C168C94361
:10172000890711D4E91E01610120207720688069B2
:101730008007204602D0FFF7E7FF04E000F098F8AA
:10174000204600F096F8257720680169C9434907CB
:1017500017D4C168C943490713D46FF0040101616C
:10176000022020772068806910F4407F204602D054
:10177000FFF7CAFF04E000F07BF8204600F079F89C
:10178000257720680169C943090716D4C168C94390
:10179000090712D46FF00801016104202077206846
:1017A000C0698007204602D0FFF7AEFF04E000F0DA
:1017B0005FF8204600F05DF8257720680169C9438D
:1017C000C90617D4C168C943C90613D46FF0100104
:1017D0000161082020772068C06910F4407F20460E
:1017E00002D0FFF791FF04E000F042F8204600F03D
:1017F00040F8257720680169C943C90708D1C16845
:10180000C943C90704D1891E0161204600F032F89E
:1018100020680169C943090609D4C168C94309069A
:1018200005D46FF0800101612046FFF7FDFE2068BE
:101830000169C943490609D4C168C943490605D4A9
:101840006FF040010161204600F01BF8206801693B
:10185000C94389060BD4C168C943890607D46FF010
:10186000200101612046BDE87040FFF7DEBE70BD7B
:10187000704770470068B0F1804F01D1FFF754BB4B
:101880007047704770B5040004D094F83D000025FF
:1018900010B106E0012070BD84F83C50204600F0F5
:1018A00023F8242084F83D002068C16821F4005109
:1018B000C160204600F0FAFB2068016921F49041E4
:1018C00001612068416921F02A0141612068C168F5
:1018D00041F40051C1602564202084F83D0084F863
:1018E0003E00002070BD000010B586B004461421F3
:1018F0006846FEF7DDFD13492068884220D1124872
:101900000021026842F400320260006800F40030F6
:1019100005900D481038026842F00102026000682C
:1019200000F0010005900C2000900220CDE901019B
:10193000032003900720049069460448FFF7FCF950
:1019400006B010BD00440040403802400000024094
:10195000FEE700000EB51448002102AB8160C160B3
:10196000082101618901016000F11801C888020A9B
:101970008DF800208DF80100488A020A8DF80220B7
:101980008DF80300C88B020A8DF804208DF805003D
:10199000488D6A46010A8DF806108DF80700024945
:1019A0000248FEF758FE0EBD18020020A4000020D9
:1019B0000F4810B50D4901600321416000214FF42B
:1019C00000228160C0E903124FF4401242610176A7
:1019D00041768176C17601774177FFF79AF8002842
:1019E00003D0BDE81040FEF722BE10BD00640040E9
:1019F000A400002010B50A4A00210A4800F0BCFCEF
:101A0000094C074A002120602432084800F0B4FC49
:101A100060600348483000F06BFCA06010BD00001F
:101A2000843D0008811D000800000020B91E000848
:101A300070B586B014216846FEF73AFD1F480025B0
:101A4000016841F080010160016801F080010591A9
:101A5000016841F001010160016801F00101059197
:101A6000016841F010010160016801F01001059169
:101A7000016841F0080101600068114E00F00800A3
:101A80004FF400740590002221463046FFF741FADA
:101A90000220CDE9025000940124694601943046A9
:101AA000FFF74AF94FF4C060CDE90005694602949A
:101AB0000448FFF741F906B070BD0000303802401D
:101AC00000100240000C02400C4810B50A490160A9
:101AD0004FF4E1314160002181600C22C160C0E916
:101AE00004128161C161FFF7CDFE002803D0BDE87B
:101AF0001040FEF79CBD10BD00440040CC0000200B
:101B0000FEE7FEE780ED0A2AC0ED081A00F10C019D
:101B100081EC030AB1EE610A80ED090A80ED073A13
:101B20009FED060AC0ED062A80ED020A80ED010A4B
:101B300080ED000A80ED0B0A7047000000000000F5
:101B400030EE600A80ED000A90ED061AB5EEC01A7C
:101B5000F1EE10FA0ED0B5EEC00AF1EE10FA02DD89
:101B6000F0EE400A01E0F1EE400AF4EEC10AF1EEB7
:101B700010FA04D2D0ED040A60EE800A01E0DFED35
:101B8000280A90ED071AB4EEE01AF1EE10FA01D22D
:101B9000F0EE410AB1EE411AB4EEE01AF1EE10FA9D
:101BA00001DDF0EE410A90ED011A90ED032AF0EE0E
:101BB000002A70EE411A61EE821AB0EE402A01EE60
:101BC000622AD0ED022A70EEA10A32EE222AD0ED6E
:101BD000052A22EE222AD0ED0B2A70EE820A72EE3E
:101BE000A00AC0ED0B0A80ED021A80ED010A90ED0B
:101BF000080AF4EEC00AF1EE10FA01DD80ED0B0ADE
:101C0000D0ED0B0A90ED090AF4EEC00AF1EE10FADD
:101C100002D3B0EE600A704780ED0B0A70470000F7
:101C20000000000070B500F04FF8244C244DB4F9CA
:101C3000020000EE100A2348F8EEC00A95ED030AF0
:101C4000FFF77EFFBDEEC00A10EE100AE080B4F987
:101C50000E0000EE100A1B48F8EEC00A95ED040ACB
:101C60003030FFF76DFFBDEEC00A10EE100A608243
:101C7000B4F91A0000EE100A1248F8EEC00A95ED09
:101C8000050A6030FFF75CFFBDEEC00A10EE100AD7
:101C9000E083B4F9260000EE100A0A48F8EEC00A04
:101CA00095ED060A9030FFF74BFFBDEEC00A10EE2F
:101CB000100A6085BDE87040FFF74CBE300200207E
:101CC00060020020580100202848DFED290A9FED1E
:101CD000291A90ED000AD0ED011AD0ED022A20EE6B
:101CE000200A80EE012A9FED240A61EE801A42EE5E
:101CF000C01ADFED222A72EE211AC0ED031AD0EDD0
:101D0000001A61EEA01A81EE812AD0ED021A61EE6E
:101D1000A21AD0ED012A42EEC01A72EE211AC0EDCD
:101D2000041AD0ED001AD0ED012A61EEA01A81EE5E
:101D3000812AD0ED021A61EE801A42EEC01A72EECC
:101D4000211AC0ED051AD0ED001A61EEA00AC0EE0E
:101D5000811AD0ED020A90ED011A60EE800A41EE80
:101D6000000A31EEA00A80ED060A704760020020EA
:101D700000800E44C57D743EE604353FE60435BF61
:101D80002DED068B82B000F019FADFED428AB0EE3D
:101D9000683A9FED418AF0EE482A9FED409AB0EEF6
:101DA000492ADFED3F9A9FED3FAAF7EE000AF0EED9
:101DB000691AB0EE4A1AB2EE040A3B48FFF7A2FED7
:101DC0003948B0EE683AF0EE482AB0EE492AF0EE13
:101DD000691AB0EE4A1AF7EE000AB2EE040A303081
:101DE000FFF790FE3048B0EE683AF0EE482AB0EEC9
:101DF000492AF0EE691AB0EE4A1AF7EE000AB2EE7E
:101E0000040A6030FFF77EFE2748B0EE683AF0EE35
:101E1000482AB0EE492AF0EE691AB0EE4A1AF7EEF7
:101E2000000AB2EE040A9030FFF76CFE1F4D00244A
:101E30001F4F85ED018A85ED028ADFF8789085EDE8
:101E4000008A26464FF40078012300961A460321A3
:101E5000B86801F013FAC043800701D15CB10024D7
:101E600085ED018A85ED028A3CB1B7EE000A85ED69
:101E7000000A012204E00124F2E785ED008A002235
:101E800041464846FFF745F8FFF7CCFE012000F039
:101E900022FAD9E70000FA430000000000409C4508
:101EA00000606A46CDCCCC3D580100206002002085
:101EB0000000002000100240164E174D4FF400772E
:101EC000341539463046FFF71FF860B9142000F08A
:101ED00002FA39463046FFF717F80028F9D00121F9
:101EE000A86801F085F921463046FFF70DF860B982
:101EF000142000F0F0F921463046FFF705F80028DD
:101F0000F9D00221A86801F073F9142000F0E3F978
:101F1000D7E70000000C02400000002010B54FF091
:101F2000E020006901F078FD012803D0BDE81040F1
:101F300001F0A2BA10BD000030B593B03021684660
:101F4000FEF7B6FA14210CA8FEF7B2FA1C480025D9
:101F5000016841F080510160006800F080501190EC
:101F60001848016841F4804101600068022400F4CF
:101F70008040119001200090000401908001CDE983
:101F8000064008AA0420542182E813000B906846FA
:101F9000FFF79EF908B172B6FEE70CA90F2081E8A1
:101FA00031004FF48050CDE90F0502210CA8FFF756
:101FB00085F8002801D072B6FEE713B030BD0000EE
:101FC00040380240007000400248016841F470014E
:101FD0000160704788ED00E00148FFF796BB000004
:101FE00010010020F0B50268254D264E264FDFF87F
:101FF0009CC0274B4FF0804EA84209D0704507D0B7
:10200000B04205D0B84203D0604501D0984203D118
:1020100022F070044A682243A8421BD0704519D0B0
:10202000B04217D0B84215D0604513D0984211D0B5
:10203000184CA0420ED0184CA0420BD0174CA04216
:1020400008D0174CA04205D0164CA04202D0164C26
:10205000A04203D122F44074CA6822434C6922F0A2
:102060008002224302608A68C2620A688262A842D1
:1020700001D0984201D10969016301214161F0BD9C
:10208000000001400004004000080040000C004037
:10209000000401400040014000440140004801406C
:1020A00000180040001C00400020004070B50446AD
:1020B00000680169E26821F4405111430161A1689F
:1020C0002069E26901436069104301432068C268E6
:1020D00049F20C639A430A43C26020684169A269CD
:1020E00021F440711143416131492068884202D096
:1020F0003049884202D1FFF7ABF801E0FFF798F8CA
:10210000E2690023192164253226B2F5004F626886
:1021100028D0A0FB0101930F9200FEF705F90146BC
:10212000B0FBF5F06FF01802504301EB800006EBB6
:102130000010B0FBF5F000F0F002B1FBF5F002EB9F
:102140000012B1FBF5F06FF01803584301EB80006B
:1021500006EB0010B0FBF5F000F00F002168104412
:10216000886070BDA0FB010192185B41FEF7DCF8AE
:102170000146B0FBF5F00201B1FBF5F06FF018037A
:10218000584301EB800006EBC000B0FBF5F000F017
:10219000F80002EB4002B1FBF5F0584301EB800080
:1021A00006EBC000B0FBF5F000F00700D6E700003A
:1021B0000010014000140140FEE7000010B58AB095
:1021C00000240120CDE90640089000940194029477
:1021D00003940594694612480494FEF7A1FA08B1E5
:1021E000FEF725FA0E48FEF774FD08B1FEF71FFA58
:1021F00001210B48FEF71DFA08B1FEF718FA02217B
:102200000748FEF716FA08B1FEF711FA054804214F
:10221000C0E901410821C0E9034104750AB010BDBD
:10222000A4000020180200200907090E002804DB82
:1022300000F1E02080F80014704700F00F0000F17A
:10224000E02080F8141D70470068194AA0F500705E
:1022500001380FD0012817D002281FD0032808D139
:10226000088840BA9084488840BAD084888840BAA8
:1022700010857047088840BA1080488840BA50805E
:10228000888840BA90807047088840BA9081488812
:1022900040BAD081888840BA10827047088840BA16
:1022A0001083488840BA5083888840BA908370472A
:1022B00030020020FEF740FEFFF73EFEFFF7B8FBBE
:1022C000FFF776FBFFF700FC00F028F8FFF792FB22
:1022D00000F036F8FEE710B5EFF3058111B16FF0AD
:1022E000050403E0002408B100F01CFE204610BDE8
:1022F00010B54FF00001EFF305826AB948B1D0E99B
:1023000002202AB1202807D3104600F05BFF02E02C
:1023100010B900F049FF0146084610BDEFF30580F3
:1023200010B16FF0050070470448016811B14FF01B
:10233000FF307047012101600020704774000020C9
:1023400010B5EFF3058010B16FF0050010BD08481F
:102350000168012902D04FF0FF3010BD054A00216D
:1023600082F8141D0221016000F0A2FE002010BDC1
:10237000740000200BE000E02DE9FF410B464FF018
:102380000005EFF30581039549BB40B38026182172
:1023900000244AB3176807B13C46976907B139462C
:1023A0004F1E382F02D21779FF0703D0002004B048
:1023B000BDE8F081576907B1BE08D2F808C0BCF18A
:1023C000000F0DD0D5685C2D18D312693AB137B122
:1023D0008DE806103246214601F0F1FA03900DE037
:1023E000D7685FB912694AB903AACDE90012B2B23F
:1023F000214601F0B7FA012800D003950398D6E7EB
:102400002DE9F041134E0F460446F5683068001D73
:1024100000F04AFC601C07D137B13168BDE8F041DB
:102420000D48091D00F09CBC30682C44AC4244604F
:10243000316805D2B06BBDE8F041091D00F078BCF1
:10244000706B091D00F074FCB06A844200D2B46263
:10245000BDE8F081240000206C0700202DE9F04148
:10246000054600F089FC2D4EB068401CB060306815
:102470002B4F10B1706930B32BE03560B068012884
:1024800027D1002404EB840007EB800000F042FC1D
:10249000641C382CF6D3234800F03CFC214814304F
:1024A00000F038FC1F48283000F034FC1D483C3058
:1024B00000F030FC1B48503000F02CFC19487063D1
:1024C0001430B06305E03068E96AC06A884200D819
:1024D0003560706A401C70626864E86A31698842DD
:1024E00000D9306100EB800007EB8000291D00F06F
:1024F00037FC00F061FC706900280CD03068E96A94
:10250000C06A884207D208494FF080500860BFF384
:102510004F8FBFF36F8FBDE8F081000024000020D3
:10252000BC0200201C07002004ED00E038B500F0DC
:1025300023FC104C2068C8B90F4800F0EBFB0E4894
:10254000143000F0E7FB0C48E060143020610A4BC7
:102550000020F03B009003F1500210210A2000F00F
:10256000A1FF206010B105A100F0A8FCBDE8384033
:1025700000F022BC6000002070080020546D7251F1
:102580000000000030B4026C0B46002A0BD0C1687A
:102590001144C1608468A14201D30168C16030BCAC
:1025A0001846FDF738BF30BC70472DE9F041856B08
:1025B000174604460026026C82B1C7B1E068FDF7F9
:1025C0002AFFE168206C091AE1602268914202D278
:1025D000A168081AE060022F16D017E02068A8B999
:1025E000A06801F091FA06460020A0600EE0606845
:1025F000FDF711FF216C606808446060A1688842A3
:1026000004D32068606001E005B16D1E6D1CA563F8
:102610003046BDE8F08110B5044690F8590058B135
:1026200001280CD002280FD0502080F31188BFF36E
:102630004F8FBFF36F8FFEE7206B00F0D1FB20467A
:10264000BDE8104000F0CCBB10BD000010484FF4B6
:102650007051420706D0C01D0D4920F00700411AF5
:10266000C1F570510B4A00230144C2E90003083947
:10267000183A21F0070111604B600B600B1AC0E99A
:10268000001393604FF000405360506170470000AA
:10269000500F002090000020134E144DA6F29C47CE
:1026A0004FF08058DFF8489011E000F065FBF068CB
:1026B000C468201D00F0F8FAA868401EA860686889
:1026C000401E686000F078FB2046FFF7A4FF6868B2
:1026D0000028EAD138680128F9D9C9F80080BFF389
:1026E0004F8FBFF36F8FF2E75807002024000020C0
:1026F00004ED00E070B51D46049C49B12260C4E9B8
:102700000F010121204600F001FF84F84C5070BDFC
:102710002460F4E72DE9F05F0E46DDE90B941746DF
:10272000834691009A460A9DA522206BFDF7B8FECC
:102730006FF00301206B01EB8701084420F00707CD
:10274000780707D0502080F31188BFF34F8FBFF375
:102750006F8FFEE74FF0000866B100202218315C51
:1027600082F83410315C11B1401C1028F6D384F883
:10277000438001E084F83480382D00D33725E562AA
:10278000C4E91358201D00F0D0FA04F1180000F03D
:10279000CCFA2461C5F138006462A061C4F85480A9
:1027A00084F8588052465946384600F067FA20604F
:1027B000B9F1000F01D0C9F80040BDE8F09F00005A
:1027C00030B5114900E011460A688242FBD34B68DC
:1027D0005C18844203D14068184448600846436846
:1027E0001C18944209D1084C183C2468A24209D014
:1027F00052681A4442600A6812680260814200D03E
:10280000086030BD0460F9E79000002070B5002436
:1028100041600B4D0061914206D8D11A8269914204
:1028200006D2011D286907E09A4203D2994201D3DA
:10283000012403E0011DE86800F07AFA204670BD2B
:102840006000002010B5044600F096FAA06B20B19D
:10285000002400F0B1FA204610BD0124F9E7000081
:1028600030B587B03C4D6EE00198002806DADDE90E
:102870000301029A90470198002864DB039C606979
:1028800010B1201D00F010FA05A800F0D7F802469C
:1028900001980A2857D2DFE800F00505052D334AD4
:1028A00005052D3394F8280040F0010084F8280035
:1028B0000298A169034601442046FFF7A7FF68B3C9
:1028C000216A2046884794F8280040073BD500201D
:1028D00000900298A169002342181946204601F091
:1028E00019FAD8B9502080F31188BFF34F8FBFF386
:1028F0006F8FFEE714F8280F20F00100207022E00F
:1029000094F8280040F0010084F828000298A061A3
:1029100028B1811813462046FFF778FF13E05020B6
:1029200080F31188BFF34F8FBFF36F8FFEE794F8EA
:102930002800810703D4204600F052FA03E020F07B
:10294000010084F82800002201A9286800F034FF63
:10295000002889D107B030BD600000202DE9FC417E
:102960000F46054600F0E6FB01A800F067F80446B4
:10297000019818B101F03EF9BDE8FC81254EAFB1D8
:1029800030690068D0B30027291B3A46306800F050
:10299000A7FA01F02FF90028EED11F494FF080501F
:1029A0000860BFF34F8FBFF36F8FE5E7A542EBD809
:1029B00001F020F9F0682746C068C468201D00F0C7
:1029C00073F994F82800410719D5A0692B464119DD
:1029D0003A462046FFF71AFFA8B1002003460146F9
:1029E00000902A46204601F095F960B9502080F306
:1029F0001188BFF34F8FBFF36F8FFEE707E020F022
:102A0000010084F82800216A20468847B4E701279E
:102A1000BAE700006000002004ED00E00648416BCA
:102A2000096829B1416BC968C96849688162704702
:102A30004FF0FF31FAE700002400002070B5054692
:102A400000F0F8FF064E0446B068844203D200F05E
:102A500009F8012000E0002028602046B46070BD25
:102A600060000020F8B5194E20E0C068C468056811
:102A7000201D00F019F9216A2046884794F82800A3
:102A8000400713D5A0692844A84206D92461606094
:102A9000211DF06800F04CF908E0002003460146D3
:102AA00000902A46204601F035F938B1F0680168F7
:102AB0000029DAD13169C6E90310F8BD502080F34E
:102AC0001188BFF34F8FBFF36F8FFEE760000020C8
:102AD00008484068401C4FF0500080F3118804D033
:102AE000BFF34F8FBFF36F8FFEE7BFF34F8FBFF37F
:102AF0006F8FFEE7980000200346002012B1994333
:102B000002D070470B42FCD001207047084CE068AF
:102B1000016839B1002139B10020FFF71FFFFFF72D
:102B20009FFEF4E70121F6E7C0680068F5E70000C2
:102B3000600000202DE9F041044600F01DF994F9F1
:102B4000455004F1240609E0606A48B1304601F0BE
:102B500019F808B100F014FA6D1E6DB2002DF3DC07
:102B60004FF0FF3684F8456000F026F900F004F9D4
:102B700094F9445004F1100709E0206948B138463F
:102B800001F000F808B100F0FBF96D1E6DB2002DE8
:102B9000F3DC84F84460BDE8F04100F00DB90000BA
:102BA0002DE9F0410546002600F0C4FA324F38689E
:102BB00008B9FFF74BFD786905424ED1C5B308351A
:102BC00068070ED005F00700C0F10800054468074B
:102BD00007D0502080F31188BFF34F8FBFF36F8F62
:102BE000FEE72DB37868854237D823491831084667
:102BF000046801E0214604466068A84202D22068C9
:102C00000028F7D13868844227D00E682068086011
:102C100060680836411B10290FD96019420708D097
:102C2000502080F31188BFF34F8FBFF36F8FFEE703
:102C300013E041606560FFF7C3FD61687868401A82
:102C40007860BA68904200D2B86078690143002089
:102C5000C4E90001F868401CF86000F0CBFF700781
:102C600007D0502080F31188BFF34F8FBFF36F8FD1
:102C7000FEE73046BDE8F0817800002010B5031F64
:102C80004FF080741C601B1F21F001011960191F97
:102C9000044B0B6014390A60091F6FF002024438BC
:102CA0000A6010BDD12A0008D0E9013201699A609A
:102CB000D0E901235A604A68824201D182684A60A1
:102CC000002202610868401E086008687047000022
:102CD000044908680A688069D26A0968C2F1380242
:102CE0008A61704724000020034B036003F15C00FD
:102CF000086080201060704798080020044B036033
:102D000003F15C0008604FF48070106070470000B1
:102D1000F40A002000F108014FF0FF32C0E901126F
:102D2000C1600161002101607047002101617047AD
:102D300030B50C68621C02D000F1080202E00269A2
:102D400004E01A4653681D68A542FAD953684B60DF
:102D500099608A60516008610168491C016030BD5A
:102D600042684A6093688B6093685960916008611B
:102D70000168491C01607047502080F31188BFF33F
:102D80004F8FBFF36F8F0A494868401C4860012885
:102D90000CD10848006810F0FF0F07D0502080F3D6
:102DA0001188BFF34F8FBFF36F8FFEE770470000AE
:102DB0009800002004ED00E00849486828B1401E52
:102DC000486001D180F311887047502080F311884A
:102DD000BFF34F8FBFF36F8FFEE700009800002016
:102DE00070B500282AD0164DA0F108046068696902
:102DF000084207D1502080F31188BFF34F8FBFF3F3
:102E00006F8FFEE722683AB1502080F31188BFF33C
:102E10004F8FBFF36F8FFEE78843606000F08AF941
:102E200060686968084468602046FFF7C9FC286943
:102E3000401C2861BDE8704000F0DCBE70BD0000A1
:102E4000780000204FF0E0200021016181610549F8
:102E50004FF47A720968B1FBF2F1491E4161072112
:102E6000016170471800002010B5FDF739FA1149CB
:102E700010280ED300F1E02090F8F0030A78904279
:102E800007D2502080F31188BFF34F8FBFF36F8FAD
:102E9000FEE709480068896800F4E060884207D9C5
:102EA000502080F31188BFF34F8FBFF36F8FFEE781
:102EB00010BD0000980000200CED00E010B5074B9D
:102EC000002253F832401CB1521C082AF9D310BD1D
:102ED00043F8321003EBC201486010BD7C020020B1
:102EE00070B515460E460446FFF746FF94F94410A8
:102EF0000020491C01D184F8440094F94510491C74
:102F000001D184F84500FFF757FFA06B28B92A4686
:102F1000314604F1240000F051F82046BDE870402D
:102F2000FFF708BE10B5020014D00F48006B38B18F
:102F3000502080F31188BFF34F8FBFF36F8FFEE7F0
:102F400000F0F8F800211046FFF75AFA00F052FEA0
:102F5000002807D105494FF080500860BFF34F8F1C
:102F6000BFF36F8F10BD00002400002004ED00E0CF
:102F700002490A6A0260C968416070472400002063
:102F800001490120C86170472400002010B50C469B
:102F900050B1094909681831FFF7CAFE2046BDE85B
:102FA00010400121FFF72CBA502080F31188BFF3A5
:102FB0004F8FBFF36F8FFEE72400002070B51446DB
:102FC0000D4668B10A4909681831FFF7C9FE0CB10E
:102FD0004FF0FF3521462846BDE87040FFF710BA94
:102FE000502080F31188BFF34F8FBFF36F8FFEE740
:102FF0002400002010B5144680B1104B1A6BAAB102
:103000001A6841F00041916119681831FFF7A8FE74
:103010002046BDE810400121FFF7F2B9502080F3AF
:103020001188BFF34F8FBFF36F8FFEE7502080F3FF
:103030001188BFF34F8FBFF36F8FFEE7240000208E
:1030400070B5194D2A6BF2B141F000410160C468BE
:103050000CB3FFF729FE201DFFF726FEE06A296961
:10306000884200D9286100EB8001104800EB810004
:10307000211DFFF775FEE06A2968C96A884201D9F7
:103080000120E86170BD502080F31188BFF34F8F9D
:10309000BFF36F8FFEE7502080F31188BFF34F8F8F
:1030A000BFF36F8FFEE7000024000020BC02002069
:1030B00030B587B00025039505AA04A903A8049597
:1030C000FFF712FEDDE903010095CDE901100023B1
:1030D00014A11648059A00F072FC154CE06218B174
:1030E00000F0E8FD012809D0401C19D1502080F3E0
:1030F0001188BFF34F8FBFF36F8FFEE7502080F32F
:103100001188BFF34F8FBFF36F8F4FF0FF30A06276
:1031100001206061E56007B0BDE8304000F032B9E1
:1031200007B030BD49444C45000000009926000816
:10313000240000200248016B491C01637047000015
:1031400024000020164B10B5186B10B10120D86177
:1031500010BD0020D8611869124901E0B8B1401EC5
:1031600000EB800251F82220002AF7D000EB800209
:1031700001EB820101F108044A6852684A60A242E8
:1031800001D152684A60D1681960186110BD5020A1
:1031900080F31188BFF34F8FBFF36F8FFEE70000FE
:1031A00024000020BC02002070B52020FFF7F8FCAE
:1031B000040005D00025201D2560FFF7ABFD257715
:1031C000204670BD38B558B120210446002000913A
:1031D0002060201DFFF79EFD01202077204638BD8E
:1031E000502080F31188BFF34F8FBFF36F8FFEE73E
:1031F0002DE9F0410025884604000AD05FEA1860F6
:103200000FD0502080F31188BFF34F8FBFF36F8F23
:10321000FEE7502080F31188BFF34F8FBFF36F8F0D
:10322000FEE7261D04F10C07FFF784FF2168F06814
:1032300041EA0801216017E0D0E9001601F07F4261
:103240005301236821F07F4102D40B4203D10AE0ED
:1032500031EA030307D1D20100D50D43216841F0C3
:103260000071FFF7EDFE3046B842E5D12068A84373
:10327000206000F0BFFC2068BDE8F0812DE9F04738
:103280009A46089F91460D4604004FF0000609D06B
:10329000280E0FD0502080F31188BFF34F8FBFF35B
:1032A0006F8FFEE7502080F31188BFF34F8FBFF37D
:1032B0006F8FFEE71DB100F0AFFB40B110E0502072
:1032C00080F31188BFF34F8FBFF36F8FFEE73FB1DD
:1032D000502080F31188BFF34F8FBFF36F8FFEE74D
:1032E000FFF728FFD4F80080524629464046FFF7F2
:1032F00003FC40B100274646B9F1000F15D0206805
:10330000A843206011E0AFB1B9F1000F01D04FF038
:103310008076BAF1000F01D046F0806645EA0601DA
:103320003A46201DFFF766FE002600F063FC1FB33F
:1033300010B109E04646F8E711494FF080500860A7
:10334000BFF34F8FBFF36F8FFFF7C2FC06468001BC
:1033500010D4FFF711FD2668524629463046FFF784
:10336000CBFB28B1B9F1000F02D02068A843206040
:10337000FFF722FD26F07F463046BDE8F0870000CB
:1033800004ED00E01CB537480168374A914207D187
:10339000502080F31188BFF34F8FBFF36F8FFEE78C
:1033A00000683149491E884207D1502080F31188B6
:1033B000BFF34F8FBFF36F8FFEE72C490878019062
:1033C000FF20087008788DF800009DF800009DF837
:1033D000002000F0F000904207D0502080F31188C8
:1033E000BFF34F8FBFF36F8FFEE79DF80000204CB7
:1033F00000F0500020700720A06006E0401EA06092
:103400009DF8000040008DF800009DF800000006C7
:10341000A068F3D4032807D0502080F31188BFF3AD
:103420004F8FBFF36F8FFEE74FF44070A06001989D
:1034300008700C482030016841F470010160016897
:1034400041F070410160FFF7FDFC00206060FCF777
:103450000FFF0848016841F040410160FCF7F4FEAD
:1034600000201CBD00ED00E071C20F4100E400E04F
:103470009800002034EF00E010B5502080F3118850
:10348000BFF34F8FBFF36F8F00F0DAFA18B1044922
:103490004FF080500860002080F3118810BD0000BC
:1034A00004ED00E038B5049D18B153B1CAB181B143
:1034B00020E0502080F31188BFF34F8FBFF36F8F50
:1034C000FEE7502080F31188BFF34F8FBFF36F8F5B
:1034D000FEE7502080F31188BFF34F8FBFF36F8F4B
:1034E000FEE739B1502080F31188BFF34F8FBFF34F
:1034F0006F8FFEE750241C46012384F846302B468C
:103500000094FFF7F7F8204638BD000070B50D466F
:10351000040025D0FFF730FCD4E90F20216802FB1E
:103520000011A1600021A163216861600A46D4E90D
:103530000F01401E00FB0121E16021464FF0FF30EA
:1035400001F8440F487004F110008DB1FFF7E2FB61
:1035500004F12400FFF7DEFBFFF72EFC012070BD15
:10356000502080F31188BFF34F8FBFF36F8FFEE7BA
:1035700021690029F0D000F005FB0028ECD00449B7
:103580004FF080500860BFF34F8FBFF36F8FE3E7BA
:1035900004ED00E02DE9FF4F83B01F468B46040089
:1035A0004FF0000603D0BBF1000F08D011E050200F
:1035B00080F31188BFF34F8FBFF36F8FFEE7206C4E
:1035C00038B1502080F31188BFF34F8FBFF36F8F56
:1035D000FEE7022F0AD1E06B012807D0502080F3CC
:1035E0001188BFF34F8FBFF36F8FFEE700F014FA1F
:1035F000DFF800914FF0000A4FF0805848B9059865
:1036000038B1502080F31188BFF34F8FBFF36F8F15
:10361000FEE7FFF7B1FBA06BE16B884205D3022FF9
:1036200003D00598C8B1DEB11EE03A46594620469F
:10363000FEF7BBFF616A19B104F1240000F0A2FAA1
:1036400028B1C9F80080BFF34F8FBFF36F8FFFF72A
:10365000B3FB012007B0BDE8F08FFFF7ADFB21E021
:103660006846FFF785FC0126FFF7A6FBFFF762FD22
:10367000FFF782FB94F94400401C01D184F844A078
:1036800094F94500401C01D184F845A0FFF794FB54
:1036900005A9684600F02CF930B12046FFF74AFA38
:1036A00000F0A8FA0020D5E7FFF766FBA06BE16BFE
:1036B000884201D1012500E00025FFF77DFB95B18F
:1036C00004F110000599FFF761FC2046FFF732FA7C
:1036D00000F090FA00289CD1C9F80080BFF34F8F0A
:1036E000BFF36F8F95E72046FFF724FA00F082FAC8
:1036F0008FE7000004ED00E02DE9F0471F469046FB
:103700008946040003D0B9F1000F08D011E0502021
:1037100080F31188BFF34F8FBFF36F8FFEE7206CEC
:1037200038B1502080F31188BFF34F8FBFF36F8FF4
:10373000FEE7022F0AD1E06B012807D0502080F36A
:103740001188BFF34F8FBFF36F8FFEE7FFF78CFB3E
:103750005020EFF3118680F31188BFF34F8FBFF332
:103760006F8FA06BE16B884206D3022F04D000203C
:1037700086F31188BDE8F08794F94550A06B3A466E
:1037800049462046FEF711FF681C04D06D1C84F8E2
:1037900045500120ECE7606A0028FAD004F12400CB
:1037A00000F0F0F90028F4D0B8F1000FF1D00121B9
:1037B000C8F80010EDE700002DE9F74783B08A460E
:1037C00004004FF0000603D0BAF1000F08D011E05A
:1037D000502080F31188BFF34F8FBFF36F8FFEE748
:1037E000206C38B1502080F31188BFF34F8FBFF3A6
:1037F0006F8FFEE700F010F9DFF8F09000274FF030
:10380000805848B9059838B1502080F31188BFF32B
:103810004F8FBFF36F8FFEE7FFF7AEFAA56BC5B111
:1038200051462046FEF7AEFE6D1EA563206950B1DD
:1038300004F1100000F0A6F928B1C9F80080BFF328
:103840004F8FBFF36F8FFFF7B7FA012006B0BDE8C7
:10385000F087059808B11EB106E0FFF7ADFA27E042
:103860006846FFF785FB0126FFF7A6FAFFF762FC23
:10387000FFF782FA94F94400401C01D184F84470A7
:1038800094F94500401C01D184F84570FFF794FA83
:1038900005A9684600F02CF8002820460AD0FFF75A
:1038A00049F900F0A7F92046FEF7CCFF0028B3D075
:1038B0000020CBE7FEF7C6FF90B104F12400059984
:1038C000FFF764FB2046FFF735F900F093F9002875
:1038D000A2D1C9F80080BFF34F8FBFF36F8F9BE772
:1038E0002046FFF727F900F085F995E704ED00E0A1
:1038F0002DE9F0410C46050011D0C4B1FFF73CFAA8
:10390000174EF1686B682268C81A571C17D02F68C9
:10391000366AB74219D08B4217D8012410E05020E4
:1039200080F31188BFF34F8FBFF36F8FFEE75020F6
:1039300080F31188BFF34F8FBFF36F8FFEE7002432
:10394000FFF73AFA2046BDE8F081824205D9101A05
:1039500020602846FFF70CFBF1E700202060DCE741
:10396000240000202DE9FF5F8346DDE90E8799469C
:1039700016468A469000FFF713F905001CD05C201C
:10398000FFF70EF9040014D00020256384F85900D5
:10399000CDE90240CDE900874B46324651465846B4
:1039A000FEF7B8FE2046FEF759FD012004B0BDE841
:1039B000F09F2846FFF714FA4FF0FF30F6E7F0B516
:1039C00085B00546DDE90B040A9EA8B1E4B15C2789
:1039D00000972063022084F859000020CDE90240BE
:1039E00004AF2846CDE90067FEF794FE2046FEF7B7
:1039F00035FD049805B0F0BD502080F31188BFF369
:103A00004F8FBFF36F8FFEE7502080F31188BFF315
:103A10004F8FBFF36F8FFEE70548416919B1006B07
:103A200018B1002070470120704702207047000045
:103A3000240000200148C0687047000024000020D6
:103A40002DE9F0412E4F0026386B28B1B869401C93
:103A5000B8613046BDE8F081FD686D1CFD6013D192
:103A6000786B006838B1502080F31188BFF34F8F16
:103A7000BFF36F8FFEE7786BB96B7963B863386A11
:103A8000401C3862FEF7CAFFB86ADFF878808542CA
:103A900009D3786B0068A0B1786BC068C4686068AF
:103AA000854211D2B8623868C06A00EB800158F8CC
:103AB0002100012800D90126F8690028C9D0012673
:103AC000C7E74FF0FF30EDE7201DFFF7EDF8A06AE4
:103AD00018B104F11800FFF7E7F8E06A3969884285
:103AE00000D9386100EB800108EB8100211DFFF750
:103AF00037F9E06A3968C96A8842CAD30126C8E73B
:103B000024000020BC02002070B504004FF000002B
:103B10002BD01A4D29688C4207D0502080F3118891
:103B2000BFF34F8FBFF36F8FFEE7216DF1B1491ED9
:103B30002165E36CE26A9A4217D0002915D1201D55
:103B4000FFF7B2F8E06CE062C0F13800A061E06A13
:103B50002969884200D92861094900EB800001EBFE
:103B60008000211DFFF7FCF8012070BD502080F37C
:103B70001188BFF34F8FBFF36F8FFEE72400002043
:103B8000BC02002070B5C068C46854B104F11800CC
:103B90000646FFF789F8144D286B50B1314613489B
:103BA00015E0502080F31188BFF34F8FBFF36F8F64
:103BB000FEE7201DFFF778F8E06A2969884200D9FE
:103BC00028610B4900EB800001EB8000211DFFF70D
:103BD000C7F8E06A2968C96A884202D90120E86109
:103BE00070BD002070BD00002400002044070020AC
:103BF000BC0200202DE9F0472B4D00242746286BFE
:103C000038B1FFF7B9F8286B401E2863286B40B124
:103C100045E0502080F31188BFF34F8FBFF36F8FC3
:103C2000FEE7A86821490126C8B3A1F59169884635
:103C3000D8F80010E1B1D8F80C00C46804F11800FD
:103C4000FFF732F8201DFFF72FF8E06A2969884254
:103C500000D9286100EB800109EB8100211DFFF7ED
:103C60007FF8E06A2968C96A8842E1D3EE61DFE73C
:103C70000CB1FEF7D3FEAC693CB1FFF7E1FE00B139
:103C8000EE61641EF9D10020A861E86938B10849E5
:103C9000012738070860BFF34F8FBFF36F8FFFF71F
:103CA0008BF83846BDE8F087240000204407002048
:103CB00004ED00E010B586B0FEF738FC114C20682A
:103CC000B8B100200390049005AA04A903A8FFF747
:103CD00015F8DDE9032102208DE8070000230AA181
:103CE0000B48059AFFF76BFE606010B106B001202B
:103CF00010BD502080F31188BFF34F8FBFF36F8F3B
:103D0000FEE7000060000020546D722053766300CF
:103D10000D2B00082DE9FF411F4603000A9E4FF0BE
:103D2000000015D0134D2C68002C0ED08DE80E002D
:103D3000062917DAFFF770FE02284FF000030FD0B4
:103D4000002269462868FFF725FC04B0BDE8F08131
:103D5000502080F31188BFF34F8FBFF36F8FFEE7C2
:103D60003246EEE700233A4669462046FFF7C4FC98
:103D7000EBE70000600000204FF04070E1EE100A19
:103D8000704700000C3E000800000000000000002A
:103D90000000000000000000000200001800000009
:103DA0000000000000000000003E000800000000CD
:103DB0000000000000000000000000000002000001
:103DC0001A0000000000000000000000F43D0008A0
:103DD00000000000000000000000000000000000E3
:103DE00000000000010203040607080900000000AB
:103DF000010203046D794576656E74303100000070
:103E00006D795461736B3032000000006465666147
:103E1000756C745461736B00383E0008000000201C
:103E2000A4000000C4010008DC3E0008A40000203B
:103E30000C510000E001000800000000000000003C
:103E40000000000001000000100000000000000061
:103E50000024F4000000000000000000000000004A
:103E60000000000000000000000000000000000052
:103E70000000000000000000000000000000000042
:103E80000000000000000000000000000000000032
:103E90000000000000000000000000000000000022
:103EA0000000000000000000000000000000000012
:103EB0000000000000000000000000000000000002
:103EC00000000000000000000000000000000000F2
:0C3ED00000000000AAAAAAAA000000003E
:040000050800018965
:00000001FF
